:1000000071C000008EC000008CC000008AC00000DB
:1000100088C0000086C0000084C0000082C00000CC
:1000200080C000007EC000007CC000007AC00000DC
:1000300078C0000076C0000074C0000072C00000EC
:1000400070C000006EC000006CC000006AC00000FC
:1000500068C0000066C0000064C0000062C000000C
:1000600060C0000008C200004DC200005AC000007D
:1000700058C0000056C0000054C0000052C000002C
:1000800050C000004EC000004CC000004AC000003C
:1000900048C0000046C0000044C0000042C000004C
:1000A00040C000003EC000003CC000003AC000005C
:1000B00038C0000036C0000034C0000032C000006C
:1000C00030C000002EC000002CC000002AC000007C
:1000D00028C0000026C0000024C0000022C000008C
:1000E00020C0000011241FBECFEFD1E2DEBFCDBF84
:1000F00000E00CBF12E0A0E0B2E0EAEEF5E000E0C4
:100100000BBF02C007900D92A832B107D9F722E0C9
:10011000A8E2B2E001C01D92AC3AB207E1F77AD191
:1001200062C26ECF0F931F93CF93DF93FC019B01AD
:10013000C0E0D0E0042F10E002C0EC01FD01C901D5
:10014000B8013DD2262F372F8A30910510F0895CF7
:1001500001C0805DDF0111968083CE0101962115DB
:10016000310559F71182A81BB90B209799F0FD01B1
:10017000A80FB91F80E090E020813E91231711F075
:1001800030832C93019631969E01281B390B8217E0
:10019000930790F3DF91CF911F910F910895EAEAB1
:1001A000F2E08081807C808380818F738083818175
:1001B000807F8183E8E6F2E08081807C808380819B
:1001C0008F7380838181807F81830895892B39F4A7
:1001D0008FEC90E09093C5008093C40006C087E642
:1001E00090E09093C5008093C40082E08093C000AB
:1001F0008BEF8093C10086E08093C2000895EAEA05
:10020000F2E0ABEAB2E040814F732081922F9295E9
:100210009695969593702C912F70220F220F292B73
:1002200050E030E0215031094217530761F3EAEA08
:10023000F2E030813F739081292F229526952695F3
:1002400023709091AB029F70990F990F922B3913E5
:1002500015C0DF01E081EF7391E09E0F292F2F730E
:100260009C91907C922B9C93F0E0E659FD4F80830B
:10027000E1ECF0E08081806280830895AAEAB2E038
:10028000EC91EF7391E09E0F292F2F739C91907C3E
:10029000922B9C93F0E0E659FD4F80830895CF9315
:1002A000DF93EC018881882329F02196A8DF8991CA
:1002B0008111FCCFDF91CF910895E8E6F2E0A9E645
:1002C000B2E020812F738081982F92959695969514
:1002D00093708C918F70880F880F892B281789F362
:1002E000A8E6B2E0EC918E2F829586958695837074
:1002F000E0916902EF70EE0FEE0FE82B81E08E0FB8
:100300008F73282F2295220F220F207C9C919F73A0
:10031000922B9C938695869511969C911197907F30
:10032000892B11968C93F0E0E85DFD4F8081089554
:10033000EF92FF920F931F93CF937C0100E010E0A8
:10034000BCDFC82F0331110568F4883069F08D30A7
:10035000F1F055DFF701C0830F5F1F4FC701019612
:100360007C01EECF883089F40115110549F388E04E
:1003700046DF80E244DF88E042DFF701108201506F
:100380001109C70101977C01DBCF8D30C9F6F70158
:100390001082CF911F910F91FF90EF900895FC0173
:1003A0002081222389F1319680E090E001C0FA019A
:1003B000BF010196AF014F5F5F4F20812111F7CF41
:1003C000009729F1681B790B21E030E080E090E094
:1003D000429150E040535109429FD001439FB00DDC
:1003E000529FB00D11248A0F9B1FA901440F551F66
:1003F000220F331F220F331F220F331F240F351FED
:10040000E617F70729F7089580E090E0089580E067
:1004100090E00895CF93DF93CDB7DEB764970FB622
:10042000F894DEBF0FBECDBF80E090E0CFDE7894C1
:10043000B6DE43DF80E092E032DFCE01019678DF66
:10044000CE010196ACDF8C014AE0BC01CE010196E1
:1004500069DE89E192E023DFCE01019620DF42E0F0
:10046000B801CE0101965EDE80E292E018DFCE0197
:10047000019615DFDECF1F920F920FB60F92112457
:100480000BB60F922F933F938F939F93AF93BF938E
:10049000EF93FF93E8E6F2E0A9E6B2E020812F7344
:1004A0008081982F92959695969593708C918F70E8
:1004B000880F880F892B30E090E0019728173907C3
:1004C00069F3A8E6B2E0EC91EF7381E08E0F982F0C
:1004D0009F738C91807C892B8C938091C600F0E077
:1004E000E85DFD4F8083FF91EF91BF91AF919F91A8
:1004F0008F913F912F910F900BBE0F900FBE0F90D9
:100500001F9018951F920F920FB60F9211240BB6E1
:100510000F922F938F939F93AF93BF93EF93FF937C
:10052000EAEAF2E020812F738081982F92959695C8
:10053000969593708091AB028F70880F880F892BEE
:10054000281306C0E1ECF0E080818F7D808329C014
:10055000AAEAB2E0EC918E2F8295869586958370FB
:10056000E091AB02EF70EE0FEE0FE82B81E08E0F03
:100570008F73282F2295220F220F207C9C919F732E
:10058000922B9C938695869511969C911197907FBE
:10059000892B11968C93F0E0E659FD4F8081809372
:1005A000C600FF91EF91BF91AF919F918F912F91D5
:1005B0000F900BBE0F900FBE0F901F901895AA1BA7
:1005C000BB1B51E107C0AA1FBB1FA617B70710F03E
:1005D000A61BB70B881F991F5A95A9F78095909570
:0A05E000BC01CD010895F894FFCF8F
:1005EA000A0D496E74726F6475636520756E206EAC
:1005FA00FA6D65726F3A0A0D000A0D4465633A0096
:08060A000A0D42696E3A00007E
:00000001FF
