:1000000071C000008EC000008CC000008AC00000DB
:1000100088C0000086C0000084C0000082C00000CC
:1000200080C000007EC000007CC000007AC00000DC
:1000300078C0000076C0000074C0000072C00000EC
:1000400070C000006EC000006CC000006AC00000FC
:1000500068C0000066C0000064C0000062C000000C
:1000600060C00000B3C10000DFC100005AC0000042
:1000700058C0000056C0000054C0000052C000002C
:1000800050C000004EC000004CC000004AC000003C
:1000900048C0000046C0000044C0000042C000004C
:1000A00040C000003EC000003CC000003AC000005C
:1000B00038C0000036C0000034C0000032C000006C
:1000C00030C000002EC000002CC000002AC000007C
:1000D00028C0000026C0000024C0000022C000008C
:1000E00020C0000011241FBECFEFD1E2DEBFCDBF84
:1000F00000E00CBF12E0A0E0B2E0EAEBF4E000E0C8
:100100000BBF02C007900D92A036B107D9F722E0CD
:10011000A0E6B2E001C01D92A43EB207E1F714D1FF
:10012000CAC16ECF0F931F93CF93DF93FC019B0146
:10013000C0E0D0E0042F10E002C0EC01FD01C901D5
:10014000B801A5D1262F372F8A30910510F0895C90
:1001500001C0805DDF0111968083CE0101962115DB
:10016000310559F71182A81BB90B209799F0FD01B1
:10017000A80FB91F80E090E020813E91231711F075
:1001800030832C93019631969E01281B390B8217E0
:10019000930790F3DF91CF911F910F91089522E083
:1001A0002093C0002BEF2093C10026E02093C200D3
:1001B000892B39F48FEC90E09093C5008093C400B4
:1001C000089587E690E09093C5008093C400089559
:1001D0004091E2022091E30250E030E021503109E9
:1001E00042175307A9F0A2EEB2E0EC91F0E0EE5511
:1001F000FD4F80838C9191E0980F9C938F738C932B
:10020000E1ECF0E080818062808380818062808385
:100210000895CF93DF93EC018881882329F02196FC
:10022000D7DF89918111FCCFDF91CF910895E0EC68
:10023000F0E080818823ECF7E1ECF0E080818068D9
:100240008083808180688083A1EAB2E0EC91F0E055
:10025000E05AFD4F80819C9121E0290F2C939F73E0
:100260009C930895EF92FF920F931F93CF937C017D
:1002700000E010E0DCDFC82F0331110568F488309E
:1002800069F08D30F1F0A4DFF701C0830F5F1F4FDD
:10029000C70101967C01EECF883089F40115110564
:1002A00049F388E095DF80E293DF88E091DFF70192
:1002B000108201501109C70101977C01DBCF8D30FD
:1002C000C9F6F7011082CF911F910F91FF90EF9027
:1002D0000895FC012081222389F1319680E090E08D
:1002E00001C0FA01BF010196AF014F5F5F4F20814E
:1002F0002111F7CF009729F1681B790B21E030E03D
:1003000080E090E0429150E040535109429FD0017B
:10031000439FB00D529FB00D11248A0F9B1FA9015E
:10032000440F551F220F331F220F331F220F331F7D
:10033000240F351FE617F70729F7089580E090E0AE
:10034000089580E090E00895CF93DF93CDB7DEB7B6
:10035000C859D1090FB6F894DEBF0FBECDBF80E0FB
:1003600090E01DDF66961FAE669767961FAE679793
:10037000C956DF4F1882C759D040C856DF4F188280
:10038000C859D04080E092E044DF88E392E041DF4A
:10039000CE01019667DFCE0101969BDF8C014AE01A
:1003A000BC01CE010196BEDE82E592E032DFCE01D5
:1003B00001962FDF42E0B801CE010196B3DE89E558
:1003C00092E027DFCE01019624DFDCCF1F920F924F
:1003D0000FB60F9211240BB60F928F939F93AF938A
:1003E000BF93EF93FF93A0EAB2E0EC918091C60037
:1003F000F0E0E05AFD4F80838C9191E0980F9C9340
:100400008F738C93E1ECF0E080818F778083FF9194
:10041000EF91BF91AF919F918F910F900BBE0F9075
:100420000FBE0F901F9018951F920F920FB60F924C
:1004300011240BB60F928F939F93AF93BF93EF93BB
:10044000FF93A3EEB2E0EC91F0E0EE55FD4F80811A
:100450008093C6008C9191E0980F9C938F738C933E
:10046000E0ECF0E0808185FFFDCFE1ECF0E0808101
:100470008F7D8083FF91EF91BF91AF919F918F917D
:100480000F900BBE0F900FBE0F901F901895AA1BD8
:10049000BB1B51E107C0AA1FBB1FA617B70710F06F
:1004A000A61BB70B881F991F5A95A9F780959095A1
:0A04B000BC01CD010895F894FFCFC0
:1004BA000A0D556E697665727369646164204175C7
:1004CA00746F6E6F6D612064652042616A612043BA
:1004DA00616C69666F726E69610A0D2050726163A0
:1004EA0074696361203861000A0A0D496E74726F7B
:1004FA006475636520756E206EFA6D65726F3A0ACF
:10050A000D000A0D4465633A000A0D42696E3A000D
:00000001FF
