:1000000071C0000081C000007FC000007DC0000002
:100010007BC0000079C0000077C0000075C0000000
:1000200073C0000071C000006FC000006DC0000010
:100030006BC0000069C0000067C0000065C0000020
:1000400063C0000061C000005FC000005DC0000030
:100050005BC0000059C0000057C0000055C0000040
:1000600053C000006EC0000096C000004DC00000EC
:100070004BC0000049C0000047C0000045C0000060
:1000800043C0000041C000003FC000003DC0000070
:100090003BC0000039C0000037C0000035C0000080
:1000A00033C0000031C000002FC000002DC0000090
:1000B0002BC0000029C0000027C0000025C00000A0
:1000C00023C0000021C000001FC000001DC00000B0
:1000D0001BC0000019C0000017C0000015C00000C0
:1000E00013C0000011241FBECFEFD1E2DEBFCDBF91
:1000F00000E00CBF22E0A0E0B2E001C01D92A438F5
:10010000B207E1F702D07EC07BCFCF93DF93CDB7AC
:10011000DEB7C458D1090FB6F894DEBF0FBECDBF0D
:1001200022961FAE229723961FAE2397CD57DF4FFF
:100130001882C358D040CC57DF4F1882C458D040E3
:10014000FFCF1F920F920FB60F9211240BB60F9292
:100150008F939F93AF93BF93EF93FF93A0E4B2E08D
:10016000EC918091C600F0E0E050FE4F80838C91CE
:1001700091E0980F9C938F7380934102FF91EF91D0
:10018000BF91AF919F918F910F900BBE0F900FBEBB
:100190000F901F9018951F920F920FB60F92112477
:1001A0000BB60F928F939F93AF93BF93EF93FF93F1
:1001B000A3E8B2E0EC91F0E0EE5BFD4F808180932C
:1001C000C6008C9191E0980F9C938F738C938091D3
:1001D000C00085FD0AC0E1ECF0E0A0ECB0E0808159
:1001E000887D80838C9185FFFACFFF91EF91BF913D
:1001F000AF919F918F910F900BBE0F900FBE0F90FC
:080200001F901895F894FFCF40
:00000001FF
