S00B00005038622E737265632F
S113000071C000008EC000008CC000008AC00000D7
S113001088C0000086C0000084C0000082C00000C8
S113002080C000007EC000007CC000007AC00000D8
S113003078C0000076C0000074C0000072C00000E8
S113004070C000006EC000006CC000006AC00000F8
S113005068C0000066C0000064C0000062C0000008
S113006060C0000062C2000099C200005AC00000D3
S113007058C0000056C0000054C0000052C0000028
S113008050C000004EC000004CC000004AC0000038
S113009048C0000046C0000044C0000042C0000048
S11300A040C000003EC000003CC000003AC0000058
S11300B038C0000036C0000034C0000032C0000068
S11300C030C000002EC000002CC000002AC0000078
S11300D028C0000026C0000024C0000022C0000088
S11300E020C0000011241FBECFEFD1E2DEBFCDBF80
S11300F000E00CBF12E0A0E0B2E0E2EDF6E000E0C8
S11301000BBF02C007900D92A036B107D9F722E0C9
S1130110A0E6B2E001C01D92A43EB207E1F7BED151
S1130120D6C26ECF0F931F93CF93DF93FC019B0135
S1130130C0E0D0E0042F10E002C0EC01FD01C901D1
S1130140B801B1D2262F372F8A30910510F0895C7F
S113015001C0805DDF0111968083CE0101962115D7
S1130160310559F71182A81BB90B209799F0FD01AD
S1130170A80FB91F80E090E020813E91231711F071
S113018030832C93019631969E01281B390B8217DC
S1130190930790F3DF91CF911F910F91089522E07F
S11301A02093C0002BEF2093C10026E02093C200CF
S11301B0892B39F48FEC90E09093C5008093C400B0
S11301C0089587E690E09093C5008093C400089555
S11301D0E2EEF2E0A3EEB2E040814F732081922F71
S11301E092959695969593702C912F70220F220FCD
S11301F0292B50E030E0215031094217530761F3B5
S1130200E2EEF2E040814F732081922F9295969511
S1130210969593702091E3022F70220F220F292BC1
S113022050E030E02150310942175307D9F0DF0183
S1130230E081EF73F0E0EE55FD4F80838C918F7376
S113024091E0980F292F2F739C91907C922B9C9373
S11302509C91907C892B8C93E1ECF0E0808180620E
S113026080830895E2EEF2E030813F739081292F7C
S113027022952695269523709091E3029F70990FFD
S1130280990F922B39131AC0DF01E081EF73F0E06C
S1130290EE55FD4F80838C918F7391E0980F292F39
S11302A02F739C91907C922B9C939C91907C892B96
S11302B08C93E1ECF0E08081806280830895CF9399
S11302C0DF93EC018881882329F0219681DF8991CD
S11302D08111FCCFDF91CF910895E0EAF2E04081F3
S11302E04F732081822F8295869586958370209105
S11302F0A1022F70220F220F282B30E02150310948
S113030050E081E02417350709F480E008951F9335
S1130310CF93DF93E0ECF0E080818823ECF7DDDF1E
S1130320882309F444C0E1ECF0E080818068808394
S1130330E0EAF2E0A0818A2F829586958695837003
S1130340C1EAD2E0A881AF70AA0FAA0FA82BB0E02F
S1130350A05ABD4F1C918081982F929596959695A1
S1130360937088818F70880F880F892B91E0980F84
S11303709F73392F3295330F330F307C20812F73C5
S1130380232B2083969596952181207F922B918310
S1130390282F2295220F220F207C90819F73922B6D
S11303A09083869586959181907F892B8183812F77
S11303B0DF91CF911F910895EF92FF920F931F93B6
S11303C0CF937C0100E010E0A2DFC82F03311105B8
S11303D068F4883069F08D30F1F0FADEF701C083FB
S11303E00F5F1F4FC70101967C01EECF883089F45F
S11303F00115110549F388E0EBDE80E2E9DE88E0CF
S1130400E7DEF701108201501109C70101977C0151
S1130410DBCF8D30C9F6F7011082CF911F910F9178
S1130420FF90EF900895FC012081222389F13196F9
S113043080E090E001C0FA01BF010196AF014F5F77
S11304405F4F20812111F7CF009729F1681B790BA9
S113045021E030E080E090E0429150E040535109C7
S1130460429FD001439FB00D529FB00D11248A0FBB
S11304709B1FA901440F551F220F331F220F331F47
S1130480220F331F240F351FE617F70729F70895A6
S113049080E090E0089580E090E00895CF93DF93AA
S11304A0CDB7DEB764970FB6F894DEBF0FBECDBFED
S11304B080E090E074DEE2EEF2E08081807C808374
S11304C080818F7380838181807F8183E0EAF2E081
S11304D08081807C808380818F7380838181807F11
S11304E0818380E092E0EBDE88E392E0E8DECE01F7
S11304F0019662DFCE01019696DF8C014AE0BC01D1
S1130500CE0101960FDE82E592E0D9DECE0101969E
S1130510D6DE42E0B801CE01019604DE89E592E020
S1130520CEDECE010196CBDEDCCF1F920F920FB64A
S11305300F9211240BB60F922F938F939F93AF9327
S1130540BF93EF93FF93A0EAB2E0EC91EF73809135
S1130550C600F0E0E05AFD4F80838C918F7391E0E8
S1130560980F292F2F739C91907C922B9C939C9194
S1130570907C892B8C93E1ECF0E080818F778083F1
S1130580FF91EF91BF91AF919F918F912F910F9018
S11305900BBE0F900FBE0F901F9018951F920F92D5
S11305A00FB60F9211240BB60F922F933F938F9394
S11305B09F93AF93BF93CF93DF93EF93FF93E2EEB9
S11305C0F2E020812F738081982F929596959695CD
S11305D093708091E3028F70880F880F892B281302
S11305E006C0E1ECF0E080818F7D80834BC0E2EEB9
S11305F0F2E0A0818A2F8295869586958370C3EE5A
S1130600D2E0A881AF70AA0FAA0FA82BB0E0AE5514
S1130610BD4F8C918093C6008081982F92959695BA
S11306209695937088818F70880F880F892B91E03D
S1130630980F9F73392F3295330F330F307C2081FD
S11306402F73232B2083969596952181207F922BBF
S11306509183282F2295220F220F207C90819F7353
S1130660922B9083869586959181907F892B8183A7
S1130670E0ECF0E0808185FFFDCFE1ECF0E08081EB
S1130680887B8083FF91EF91DF91CF91BF91AF91F0
S11306909F918F913F912F910F900BBE0F900FBEA2
S11306A00F901F901895AA1BBB1B51E107C0AA1FEE
S11306B0BB1FA617B70710F0A61BB70B881F991FFF
S11306C05A95A9F780959095BC01CD010895F894A9
S10506D0FFCF56
S11306D20A0D556E697665727369646164204175A9
S11306E2746F6E6F6D612064652042616A6120439C
S11306F2616C69666F726E69610A0D205072616382
S113070274696361203861000A0A0D496E74726F5C
S11307126475636520756E206EFA6D65726F3A0AB0
S11307220D000A0D4465633A000A0D42696E3A00EF
S9030000FC
