:100000000C9472010C9493010C9493010C94930141
:100010000C9493010C9493010C9493010C94930110
:100020000C9493010C9493010C9493010C94930100
:100030000C9493010C9493010C9493010C949301F0
:100040000C9493010C9493010C9493010C949301E0
:100050000C9493010C9443290C9493010C949301F8
:100060000C9493010C9493010C944F2C0C949301D9
:100070000C9493010C9493010C9493010C949301B0
:100080000C9493010C9493010C9493010C949301A0
:100090000C9493010C9493010C9493010C94930190
:1000A0000C9493010C9493010C9493010C94930180
:1000B0000C9493010C9493010C9493010C94930170
:1000C0000C9493010C9493010C9493010C94930160
:1000D0000C9493010C9493010C9493010C94930150
:1000E0000C949301D606D606450DAA0CD606D60664
:1000F000450DAA0CD606D606450DAA0CD606D60680
:10010000450DAA0CD606D606450DFA0AD606D60621
:10011000450DB80AD606D606450DE40AD606D6061B
:10012000450DCE0A450D450D450D450D450D450DB9
:10013000450D450D450D450D450D450D450D450D2F
:10014000450D450D450D450D450D450D450D450D1F
:10015000450D450D450D450D450D450D450D450D0F
:10016000450D450D9B079B07D606D606D606D60637
:100170005E0C110C450D450D450D450D450D450D0C
:10018000450D450D450D450D450D450D450D450DDF
:10019000450D450D450D450D450D450D450D450DCF
:1001A000450D450D450D750A450D3A0B450D750A72
:1001B000150A5E0ACD0CCD0C450D1A0B450D450DEB
:1001C000450D450D450D450D450D450D450D450D9F
:1001D000450D450D450D450D2A0B5A08AA06B606D4
:1001E000C206700925142514F11D771BA714A71446
:1001F000F11D771B3D143D14F11D771B6D146D141B
:10020000F11D771B85148514F11D571A55145514CB
:10021000F11D151AC914C914F11D411AEB14EB1480
:10022000F11D2B1AF11DF11DF11DF11DF11DF11D27
:10023000F11DF11DF11DF11DF11DF11DF11DF11D4E
:10024000F11DF11DF11DF11DF11DF11DF11DF11D3E
:10025000F11DF11DF11DF11DF11DF11DF11DF11D2E
:10026000F11DF11D54155415031525150D140D140C
:10027000361BE51AF11DF11DF11DF11DF11DF11DDA
:10028000F11DF11DF11DF11DF11DF11DF11DF11DFE
:10029000F11DF11DF11DF11DF11DF11DF11DF11DEE
:1002A000F11DF11DF11DDA19F11DA31AF11DF11D4A
:1002B000A8183619C11BC11BF11D721AF11DF11DC1
:1002C000F11DF11DF11DF11DF11DF11DF11DF11DBE
:1002D000F11DF11DF11DF11D8C1A6316CE13E213F1
:1002E000F713231811241FBECFEFD1E2DEBFCDBF1D
:1002F00000E00CBF19E0A0E0B2E0E8E5FEE500E0B8
:100300000BBF02C007900D92AE35B107D9F71BE1C4
:10031000AEE5B9E001C01D92A534B107E1F70E9436
:1003200008240C942A2F0C940000EBE8FAE11192B7
:1003300011928AE1EB39F807D1F71092331B109232
:10034000321B1092351B1092341B1092371B1092E7
:10035000361B1092391B1092381B10923B1B1092C7
:100360003A1B80E091E09093600980935F090895C3
:10037000FB01DC01AB59B64FEB59F64F20E030E002
:100380008D9181932F5F3F4F42175307C8F7089510
:10039000FC01EB59F64F02C01192019668177907DC
:1003A000D8F708958F929F92BF92CF92DF92EF92EB
:1003B000FF920F931F93DF93CF93CDB7DEB7EC97E8
:1003C0000FB6F894DEBF0FBECDBF6B01FB011082EC
:1003D00090936209809361098E01055F1F4F4E0162
:1003E0000894811C911C26E0E22EF12CEC0EFD1EDF
:1003F000BB24B3941092FA1A8091341B9091351B50
:1004000060916109709162096F5F7F4F709362091B
:1004100060936109615070400E945D258093271AA6
:1004200080915E09813029F48AEF9AE1B8010E9437
:100430005C2E8091271A90E0B80142E00E942027AC
:10044000BC018AEF9AE10E945C2E2091271A822F2C
:1004500086958695869590E080319105B4F48E302E
:1004600091050CF0FBC08930910549F18A30910566
:1004700024F4089709F0E3C21EC08A30910509F4FC
:1004800096C00B9709F0DBC296C08631910509F43E
:1004900057C0873191053CF482319105A1F0439713
:1004A00009F0CDC297C087319105B9F04C970297FA
:1004B00008F0C5C2D3C0C60160E072E07FC0C601CB
:1004C00065E072E07BC0277021F0C6016AE072E04F
:1004D00075C0C60163E172E0BDC0C60167E172E0AC
:1004E0000E94702EE091271AE770F0E0EE0FFF1FD8
:1004F000E653F84F60817181C6010E945C2EC601EF
:100500006CE172E00E945C2E609161097091620959
:100510008091341B9091351B0E946F2590932B1A6C
:1005200080932A1AB80144E00E942027BC01C6012A
:100530000E945C2E80912A1A90912B1A9070E0C430
:10054000C60167E172E00E94702EE091271AE77001
:10055000F0E0EE0FFF1FE451F84F60817181C6019A
:100560000E945C2EC6016CE172E00E945C2E8091BC
:10057000341B9091351B60916109709162096F5F26
:100580007F4F7093620960936109615070400E94CF
:100590005D258093B31990E0B80142E00E942027C6
:1005A000BC01C6010E945C2E8AEF9AE185C7C60194
:1005B0006EE172E003C0C60164E272E00E94702E38
:1005C000E091271AE770F0E0EE0FFF1FE653F84FB7
:1005D0000C94C90C2770822F90E08330910539F17B
:1005E0008430910554F481309105C9F08230910531
:1005F000D4F4892B81F00C94450D85309105F9F0E8
:1006000085309105C4F086309105E9F0079711F027
:100610000C94450D1CC0C60169E272E01BC0C60106
:100620006DE272E017C0C60161E372E013C0C6015B
:100630006EE372E00FC0C60167E472E00BC0C60152
:100640006DE472E007C0C60162E572E003C0C60156
:1006500067E572E00E94702E0C94450D51E05093B6
:10066000B3194091271A242F30E0C901847F90707C
:10067000843E910509F0B9C01092B31943FF05C03B
:1006800080918F1A9091901A0BC0609161097091BE
:1006900062098091341B9091351B0E945D2590E08A
:1006A0008093B1199093B2198091271A873E09F46B
:1006B0007BC0883E48F4853E19F1863E08F04FC065
:1006C000843E09F057C112C08D3EA1F08E3E20F449
:1006D0008C3E09F04FC106C08E3EE9F18F3E09F015
:1006E00049C15EC0C6016CE572E007C0C60165E69F
:1006F00072E009C0C6016CE672E00E94702E3AC139
:10070000C60165E772E00E94702E809161099091A8
:100710006209019690936209809361098E01055FD9
:100720001F4F8091B1199091B219B80142E00E9417
:100730002027BC01C6010E945C2E8091B1199091C6
:10074000B219B80142E00E942027BC018AEF9AE169
:100750000E945C2E0FC1C6016CE772E0CECFC601CD
:1007600066E872E00E94702E8091610990916209A2
:10077000019690936209809361098E01055F1F4F76
:100780008091B1199091B219B80142E00E942027DE
:10079000BC01C6010E945C2EC6016BE872E0CBCFA3
:1007A000C6016FE872E0A9CFC60166E872E00E9458
:1007B000702E80916109909162090196909362096F
:1007C000809361098E01055F1F4F8091B11990914F
:1007D000B219B80142E00E942027BC01C6010E9464
:1007E0005C2EC60169E972E0A6CFC901807F9070D6
:1007F0008037910509F07AC0C9018F7090708730F9
:10080000910509F44FC088309105ACF4833091050F
:10081000C9F1843091054CF48130910559F1823051
:10082000910564F5892B11F1A7C08530910591F1EF
:100830000697A4F52BC08B30910509F443C08C308A
:10084000910534F489309105A9F10A97BCF52EC0C1
:100850008D30910509F43EC08D309105BCF18E308C
:100860009105E1F10F9709F087C03CC0C6016DE921
:1008700072E07DC0C60161EA72E079C0C60166EA35
:1008800072E075C0C6016AEA72E071C0C6016FEA23
:1008900072E06DC0C60163EB72E069C0C60168EB2F
:1008A00072E065C0C6016DEB72E061C0C60161EC2B
:1008B00072E05DC0C60165EC72E059C0C6016AEC29
:1008C00072E055C0C6016EEC72E051C0C60163ED26
:1008D00072E04DC0C60167ED72E049C0C6016CED23
:1008E00072E045C0C60161EE72E041C0842F887F8E
:1008F000803E09F5C9018F7090708130910599F0A3
:10090000823091051CF4892B91F036C0823091051C
:1009100031F0039789F5C60165EE72E028C0C60183
:100920006BEE72E024C0C60161EF72E020C0C60128
:1009300068EF72E01CC0883EE9F4493E89F04A3E07
:1009400018F4483EB9F405C04A3E39F04B3E91F4E4
:100950000BC0C60160E073E0D0CE5093DE1A0AC02F
:10096000C60166E073E0C9CEC60166E073E00E948E
:10097000702E02C000E001C001E08091B31988230D
:1009800011F40C94450D2091610930916209002306
:10099000A1F08091341B9091351BB9010E945D2517
:1009A000992787FD90959093621A8093611A8091A0
:1009B000610990916209019610C08091341B909159
:1009C000351BB9010E946F259093621A8093611ABA
:1009D00080916109909162090296909362098093D7
:1009E00061098091611A9091621A20916109309198
:1009F0006209820F931F67EE7AE144E00E9420278C
:100A0000BC01C6010E945C2E8091611A9091621A0D
:100A100090932B1A80932A1A9070002369F467EE42
:100A20007AE142E00E942027BC018AEF9AE10E940D
:100A30005C2E80912B1A90E067EE7AE192C580914E
:100A4000271A1092271A8093281A8091341B9091AC
:100A5000351B60916109709162096F5F7F4F7093E0
:100A6000620960936109615070400E946F25809314
:100A70002A1A90932B1A8093B3199091281A917087
:100A80009093721A90E0B80142E00E942027BC01C6
:100A9000C4010E94702E80912A1A90912B1AB801DD
:100AA00044E00E942027BC01C7010E94702E809163
:100AB000281A869590E08631910581F1873191055C
:100AC000B4F48A30910551F18B30910544F48230B1
:100AD000910521F18630910509F0F3C01FC08E30D9
:100AE0009105E1F08231910509F0EBC017C0803526
:100AF000910509F47EC08135910544F48A31910550
:100B000069F08E31910509F0DCC008C0813591058E
:100B100009F4A4C08435910509F0D3C08231910550
:100B2000B1F1833191057CF486309105C1F18730B4
:100B300091051CF40297E1F516C08A309105B9F0D1
:100B40000E97B1F51CC08A31910569F18B31910581
:100B50001CF4469769F50FC08E319105A1F08435DC
:100B6000910531F518C0C6016BE073E01FC0C601E6
:100B700061E173E01BC0C60167E173E017C0C60105
:100B80006DE173E013C0C60163E273E00FC0C601FC
:100B900069E273E00BC0C6016FE273E007C0C601F3
:100BA00066E373E003C0C6016BE373E00E94702E3E
:100BB0008091721A882319F461E473E002C064E43E
:100BC00073E0C6010E945C2E8091721A8E01055F4F
:100BD0001F4F882329F0C601BE016A5F7F4FE6C51B
:100BE000C601BE016F5F7F4F0E945C2E8091B319DA
:100BF000B6C480912A1A90912B1A9070B80142E0E5
:100C00000E942027BC018AEF9AE10E945C2E80910D
:100C10002B1A90E0B80142E00E942027BC018AEF25
:100C20009AE10E945C2EC60167E473E00E945C2E8C
:100C30008091721A882319F46DE473E002C061E5B3
:100C400073E0C6010E945C2EC601BE016A5F7F4F41
:100C50000E945C2EC60165E573E0D7C580912A1A13
:100C600090912B1A9070B80142E00E942027BC019D
:100C70008AEF9AE10E945C2E80912B1A90E0B801D5
:100C800042E00E942027BC018AEF9AE10E945C2E7C
:100C9000C60167E573E00E945C2EC601B7010E94A1
:100CA0005C2EC6016DE573E00E945C2E8091721A85
:100CB000882319F460E673E002C063E673E0C601BE
:100CC000A4C58091B31990E02091271A3091281A79
:100CD000822B932B9093281A8093271A9070B80137
:100CE00042E00E942027BC018AEF9AE10E945C2E1C
:100CF00060916109709162098091341B9091351B5C
:100D00000E946F2580932A1A90932B1A8093B3190F
:100D100090E0B80142E00E942027BC01C4010E947B
:100D2000702E80912A1A90912B1AB80144E00E94EB
:100D30002027BC01C7010E94702E8091281A869539
:100D400090E0FC01EE58FF4FEE0FFF1F0590F4916D
:100D5000E02D19941092FC1A8091281A80FD03C08E
:100D600066E673E01AC06AE673E017C01092FC1AD8
:100D70008091281A80FD03C06EE673E00EC062E722
:100D800073E00BC01092FC1A8091281A80FD03C0FA
:100D900066E773E002C06AE773E0C6010E94702E46
:100DA0008091610990916209019736C58231910560
:100DB000DCF4803191050CF04AC08630910544F492
:100DC000843091050CF047C0029708F061C02FC035
:100DD000883091050CF45CC08A30910564F10C9761
:100DE000029708F055C02FC08E3191057CF48C31EC
:100DF0009105CCF5843191050CF44AC086319105FA
:100E0000F4F04897029708F043C029C08334910555
:100E100071F18434910524F482349105C9F533C00D
:100E200086349105ACF5C60167E172E02FC0C601BA
:100E30006EE773E02BC0C60163E873E027C0C6010C
:100E400068E873E023C0C6016DE873E01FC0C60107
:100E500062E973E01BC0C60167E973E017C0C60111
:100E60006BE973E013C0C60160EA73E00FC0C6010E
:100E700065EA73E00E94702E8091281A8170846860
:100E80008093281A05C0C6016BEA73E00E94702E99
:100E900080916109909162090E94CD28C60163E6A4
:100EA0007AE10E945C2EC6016CE172E00E945C2E29
:100EB000C60163E77AE10E945C2E9091271A892F80
:100EC00082958695869583708093291A813059F092
:100ED000813020F0823009F0D8C50CC09770963070
:100EE00009F0D3C507C080912A1A90E0BE01655F62
:100EF0007F4F85C480912A1A8E01055F1F4F90E0B5
:100F0000B80142E00E942027BC018AEF9AE10E94CA
:100F10005C2E80912B1A90E0B80142E00E942027BD
:100F2000BC018AEF9AE10E945C2E80916109909148
:100F30006209029671C46091271A7091281A8091F3
:100F400061099091620948E15AE10E947827BC0149
:100F500090936209809361098091341B9091351BB5
:100F60000E946F2580932A1A90932B1A8093B319AD
:100F70008091281A81708093721A8091271A869521
:100F800086958695877090E08330910521F18430B5
:100F900091054CF481309105B1F082309105BCF49B
:100FA000892B69F02DC085309105E9F085309105D8
:100FB000B4F086309105D9F0079711F51CC0C60131
:100FC0006EE773E01BC0C60167E973E017C0C60196
:100FD00063E873E013C0C6016DE873E00FC0C6019B
:100FE00062E973E00BC0C60168E873E007C0C601A0
:100FF0006BE973E003C0C60160EA73E00E94702EE3
:101000008091271A807C803C61F0E091721AF0E0B8
:10101000EE0FFF1FEC5DF74F60817181C6010E94EA
:101020005C2EC60168E17AE10E945C2EC6016CE18B
:1010300072E00E945C2E8091721A8823B9F180912F
:10104000281A869580FF2BC08091B3198093DE1AF1
:1010500087FF03C061EB73E002C063EB73E0CE0176
:101060000B960E94702E8091DE1A87FF03C0819537
:101070008093DE1A8091DE1A992787FD909563E7A9
:101080007AE142E00E942027CE010B9663E77AE1E5
:101090000E945C2E8AEF9AE163E77AE11AC180919F
:1010A0002A1A8E01055F1F4F90E0E2C08E01055F96
:1010B0001F4F05C160916109709162098091341BD5
:1010C0009091351B0E946F2580932A1A90932B1ABA
:1010D0008093B3196091271A7091281A8091610941
:1010E0009091620948E15AE10E9478279093620941
:1010F000809361099091271A892F8295869586950C
:1011000083708093291A813049F0813018F0823041
:1011100039F50BC09770963019F507C080912A1ADF
:1011200090E0BE01655F7F4F13C080912A1A8E0147
:10113000055F1F4F90E0B80142E00E942027BC01EC
:101140008AEF9AE10E945C2E80912B1A90E0B80100
:1011500042E00E942027BC018AEF9AE10E945C2EA7
:1011600060916109709162098091341B9091351BE7
:101170000E946F2580932A1A90932B1A8093B3199B
:101180008091281A81708093721A1092E31A8091CC
:10119000271A869586958695877090E0843091050C
:1011A00031F1853091054CF482309105C1F08330E6
:1011B0009105CCF4892B51F02BC086309105F9F0C4
:1011C00086309105C4F0079719F51DC0C6016BEA7A
:1011D00073E00E94702E81E08093E31A19C0C6016B
:1011E00065EB73E013C0C6016AEB73E00FC0C60184
:1011F0006FEB73E00BC0C60164EC73E007C0C6017F
:101200006AEC73E003C0C6016FEC73E00E94702EBD
:101210008091271A807C803C61F0E091721AF0E0A6
:10122000EE0FFF1FEC5DF74F60817181C6010E94D8
:101230005C2EC60168E17AE10E945C2E8091E31A7F
:10124000882329F0C6016CE172E00E945C2E809137
:10125000271A887309F0DBC28091281A8E01055F76
:101260001F4F80FF2CC080912A1A90912B1A9070EA
:10127000B80142E00E942027BC018AEF9AE10E9457
:101280005C2E80912B1A90E0B80142E00E9420274A
:10129000BC018AEF9AE10E945C2E80912A1A9091FB
:1012A0002B1AB80144E00E94202780916109909197
:1012B0006209019690936209809361090CC0809144
:1012C000B31990E0B80142E00E9420278AEF9AE12A
:1012D000B8010E945C2EC601BE01655F7F4F95C2BA
:1012E00060916109709162098091341B9091351B66
:1012F0000E946F2580932A1A90932B1A8093B3191A
:101300006091271A7091281A809161099091620961
:1013100048E15AE10E94782790936209809361091D
:101320009091271A892F8295869586958370809350
:10133000291A813049F0813018F0823039F50BC01C
:101340009770963019F507C080912A1A90E0BE0177
:10135000655F7F4F13C080912A1A8E01055F1F4F72
:1013600090E0B80142E00E942027BC018AEF9AE198
:101370000E945C2E80912B1A90E0B80142E00E94FE
:101380002027BC018AEF9AE10E945C2E8091281AE6
:1013900081708093721A8091271A8695869586951A
:1013A000877090E08330910591F1843091054CF481
:1013B00081309105A1F0823091054CF5892B59F0CF
:1013C00064C38530910539F18530910524F1069784
:1013D00009F05BC324C0C60160E072E003C0C6012F
:1013E00065E072E00E94702E8091271A807C803C1C
:1013F00009F460C2E091721AF0E0EE0FFF1FEC5D9D
:10140000F74F60817181C6010E945C2E53C2C601F4
:1014100060E073E007C0C60166E073E003C0C60188
:101420006EE172E00E94702E45C21092FC1AC60155
:1014300065ED73E00E94702E609161097091620900
:101440006150704070936209609361098091281A1D
:1014500080FF20C08091341B9091351B0E945D2538
:1014600080932A1A10922B1A90E0BE01655F7F4F7D
:1014700042E00E942027BC018AEF9AE10E945C2E84
:10148000809161099091620901969093620980931D
:10149000610906C083E090E090932B1A80932A1A8A
:1014A0008E01055F1F4F80912A1A90912B1AB80167
:1014B00042E00E942027C601B801E5C21092FC1A42
:1014C00080916109909162090197909362098093DC
:1014D00061098091281A80FF04C0C6016AED73E09B
:1014E000B9C8C6016FED73E0B5C81092FC1AC60109
:1014F00064EE73E00E94702E609161097091620940
:101500006150704070936209609361098091281A5C
:1015100080FDBBC28091341B9091351B0E946F25CA
:1015200090932B1A80932A1A8E01055F1F4FB801E2
:1015300044E00E942027C601B8010E945C2E8091E1
:101540002A1A90912B1A9070B80142E00E9420272D
:10155000BC018AEF9AE10E945C2E80912B1A90E0E8
:10156000B80142E00E942027BC018AEF9AE18BC2B9
:10157000809161099091620901979093620980932B
:1015800061098091281A80FF02C00C94FA01B09280
:101590005E0986E89AE169EE73E041C080916109D5
:1015A00090916209019790936209809361098091FB
:1015B000281A80FF02C00C94FA01B0925E0986E8F6
:1015C0009AE16DEE73E02BC0809161099091620900
:1015D000019790936209809361098091281A80FF96
:1015E00002C00C94FA01B0925E0986E89AE161EFBC
:1015F00073E015C080916109909162090197909301
:101600006209809361098091281A80FF02C00C94BE
:10161000FA01B0925E0986E89AE165EF73E00E94F4
:10162000702E1092FC1AC8016AEF7AE10E94702EA7
:101630000C94FA011092FC1A809161099091620950
:1016400001979093620980936109C60169EF73E085
:101650000C942A031092FC1A8091610990916209FE
:1016600001979093620980936109C6016EEF73E060
:101670000C942A03C60167E172E00E94702E60910B
:10168000271A7091281A809161099091620948E1A6
:101690005AE10E9478279093620980936109E09152
:1016A000721AF0E0EE0FFF1FEC5DF74F6081718161
:1016B000C6010E945C2EC60168E17AE10E945C2EA0
:1016C000C6016CE172E00E945C2E9091271A892F6E
:1016D00082958695869583708093291A813059F07A
:1016E000813028F0823071F08330A9F525C09770E1
:1016F000963089F507C080912A1A90E0BE01655F97
:101700007F4F13C080912A1A8E01055F1F4F90E012
:10171000B80142E00E942027BC018AEF9AE10E94B2
:101720005C2E80912B1A90E0B80142E00E942027A5
:10173000BC018AEF9AE10DC0C60167E172E00E9428
:10174000702EC60168E17AE10E945C2EC6016CE150
:1017500072E00E945C2E8091271A887309F057C0AE
:101760008091721A20916109309162098E01055FA2
:101770001F4F882371F18091341B9091351BB90163
:101780000E946F2590932B1A80932A1A2091610949
:10179000309162092F5F3F4F3093620920936109B6
:1017A000B80144E00E942027BC01C6010E945C2EC3
:1017B00080912A1A90912B1A9070B80142E00E94F1
:1017C0002027BC018AEF9AE10E945C2E80912B1A9F
:1017D00014C08091341B9091351BB9010E945D2586
:1017E0008093B31990E0B80142E00E942027BC0129
:1017F000C6010E945C2E8091B31990E0B80142E0CE
:101800000E942027BC018AEF9AE10E945C2E809101
:101810006109909162090196909362098093610930
:1018200034C1C60167E172E00E94702EE091271A70
:10183000E695E695E695E770E093E61AF0E0EE0FA0
:10184000FF1FE85FF74F60817181C6010E945C2E27
:101850008091281A80FD14C081608093281A6091BD
:10186000271A7091281A809161099091620943E7C3
:101870005AE10E9478279093620980936109FBC026
:10188000C60164E272E00E94702E6091271A709186
:10189000281A809161099091620948E15AE10E94F9
:1018A000782790936209809361098091E61A8823D2
:1018B00009F0EBC0C60168E17AE1E5C0C60167E165
:1018C00072E00E94702EE091271AE695E695E69563
:1018D000E770E0935E1AF0E0EE0FFF1FE85FF74F4E
:1018E0006081718183E79AE10E94702E8091281AAD
:1018F000209161093091620980FD11C0816080935F
:10190000281A6091271A7091281AC90148E15AE1F2
:101910000E9478279093620980936109A7C0609123
:10192000271A7091281AC90148E15AE10E947827C4
:101930009093620980936109C60162E074E00E949D
:10194000702EC60163E77AE10E945C2EC60167E053
:1019500074E099C09595879595958795837090705B
:101960009093311B8093301B8091281A80FF04C014
:10197000C60164E272E003C0C6016EE172E00E943B
:101980005C2EE091301BF091311BEE0FFF1FE85FE2
:10199000F74F60817181C60176C08091271A8695C4
:1019A00086958695877080935E1A8091281A81703B
:1019B0008093721A6091271A7091281A8091610998
:1019C0009091620948E15AE10E9478278091281A93
:1019D000869580FF05C083E79AE16CE074E004C05F
:1019E00083E79AE16FE074E00E94702E80915E1AA6
:1019F0008330D1F0843028F4813071F0823080F46B
:101A000007C08530C9F0853098F08730F1F418C0F0
:101A1000C60161E174E017C0C60166E174E013C05D
:101A2000C6016BE174E00FC0C60160E274E00BC058
:101A3000C60165E274E007C0C6016AE274E003C053
:101A4000C6016FE274E00E94702E8091271A807C9C
:101A5000803C61F0E091721AF0E0EE0FFF1FEC5D48
:101A6000F74F60817181C6010E945C2EC60168E15A
:101A70007AE10E945C2EC6016CE172E00E945C2E4D
:101A8000C60163E77AE10E945C2E8AEFE82E8AE1C4
:101A9000F82EF70101900020E9F73197EE19FF09C0
:101AA0004EE04E1B4093B3198E01055F1F4FC801D6
:101AB00068E278E050E00E94772E8091B319F80137
:101AC000E80FF11D1082C701B8010E945C2EC7010A
:101AD000B6010E945C2EC601B7010E94702EEC96E2
:101AE0000FB6F894DEBF0FBECDBFCF91DF911F912F
:101AF0000F91FF90EF90DF90CF90BF909F908F90CD
:101B0000089584E394E00E942E2B87E394E00E94E2
:101B10002E2B8FE494E00E942E2B87E694E00E9407
:101B20002E2B86E894E00E942E2B81EA94E00E94FE
:101B30002E2B81EB94E00E942E2B81EC94E00E94EE
:101B40002E2B86ED94E00E942E2B86EE94E00E94D0
:101B50002E2B84E095E00E942E2B8FE195E00E94D1
:101B60002E2B8FE295E00E942E2B8FE395E00E94B2
:101B70002E2B80E695E00E942E2B80E795E00E94B8
:101B80002E2B88E895E00E942E2B88E995E00E9494
:101B90002E2B88EA95E00E942E2B08958AEB95E083
:101BA0000E942E2B82EC95E00E942E2B84E394E081
:101BB0000E942E2B08958631F1F0813221F0883079
:101BC00009F081C022C080918C1A823051F0883097
:101BD00069F0813009F077C00E943B2B80938B1A0B
:101BE00002C080918F1A0E942B2B08950E943B2BDC
:101BF00080938B1A089580918C1A813009F063C00C
:101C00000E94422B80938C1A089580E090E060E25D
:101C100070E00E946F25892B09F455C06091931ADA
:101C20007091941A625070407093941A6093931A52
:101C300040913A1B50913B1B8091361B9091371B72
:101C40000E94992580913B1B8C7F80933B1B609168
:101C5000931A7091941A625070407093941A609322
:101C6000931A40918D1A50918E1A8091361B909143
:101C7000371B0E9499256091931A7091941A6250B3
:101C800070407093941A6093931A40915F09509139
:101C900060098091361B9091371B0E94992580E046
:101CA00090E060E270E00E946F259093600980935D
:101CB0005F0980E090E062E270E00E946F259093FF
:101CC0008E1A80938D1A0895EF92FF920F931F93AF
:101CD000CF93DF93CBE8DAE111E08091341B909150
:101CE000351B60915F09709160096F5F7F4F709342
:101CF000600960935F09615070400E945D25082F64
:101D00008093271A86958695869590E08031910577
:101D1000BCF48E3091050CF070C18930910509F446
:101D200043C08A30910524F4089709F079C320C094
:101D30008A30910509F4AFC00B9709F071C3C6C092
:101D40008631910509F483C08731910544F48231CD
:101D5000910509F445C0439709F062C3D5C08731A6
:101D6000910509F456C04C97029708F059C345C134
:101D700010913A1B11700770E02FF0E0EE0FFF1F7B
:101D8000E557F54E408151814F5F5F4F518340834E
:101D90006FB781E00E943D2480913A1B8E7F812B9A
:101DA00080933A1B0C94F11D0770E02FF0E0EE0FCA
:101DB000FF1FE557F54E40815181415050405183FE
:101DC000408310913A1B11706FB781E00E943D244F
:101DD00080913A1B8E7F812B80933A1B0C94F11DCE
:101DE00080918B1A90918C1A90932B1A80932A1AB7
:101DF0000770E02FF0E0EE0FFF1FE557F54E208152
:101E0000318130938C1A20938B1A918380830C94A8
:101E1000F11D077010E060915F0970916009809179
:101E2000341B9091351B0E946F25000F111F055721
:101E3000154EF8019183808380915F09909160092C
:101E400002969093600980935F090C94F11D0770CE
:101E500010E08091341B9091351B60915F09709167
:101E600060096F5F7F4F7093600960935F096150F5
:101E700070400E945D25F801E370F070EE0FFF1FC7
:101E80001595079515950795E00FF11FE557F54E48
:101E900080830C94F11D6091931A7091941A625092
:101EA00070407093941A6093931A0770E02FF0E0DB
:101EB000EE0FFF1FE557F54E408151818091361B93
:101EC0009091371B0E9499250C94F11D077010E02A
:101ED0006091931A7091941A8091361B9091371BE0
:101EE0000E946F25000F111F0557154EF8019183B1
:101EF00080838091931A9091941A02969093941AE9
:101F00008093931A0C94F11D077010E004301105B2
:101F100079F1053011054CF40115110599F00130E6
:101F2000110511F00C94F11D15C00630110509F4CE
:101F30004EC00630110594F10730110511F00C94D4
:101F4000F11D55C080918B1A880F880B80938C1AD5
:101F50000C94F11D80918C1A992787FD9095990F0B
:101F6000880B982F9093901A80938F1A0C94F11DE0
:101F70006091931A7091941A625070407093941A01
:101F80006093931A40913A1B50913B1B8091361BF2
:101F90009091371B0E9499250C94F11D6091931A22
:101FA0007091941A8091361B9091371B0E946F2577
:101FB00090933B1B80933A1B8091931A9091941AB3
:101FC00002969093941A8093931A0C94F11D209189
:101FD0008C1A30E080913A1B90913B1B8070282B2B
:101FE000392B30933B1B20933A1B0C94F11D8091AD
:101FF0003A1B80938C1A0C94F11D1092DE1A4091BA
:10200000271A242F30E0C901847F9070843E910507
:1020100009F08EC043FF05C080918F1A9091901AED
:102020000BC060915F09709160098091341B9091A1
:10203000351B0E945D2590E08093B1199093B219F1
:102040008091271A873E09F466C0883E48F4853E91
:10205000A9F1863E08F04CC0843E09F09AC117C031
:102060008D3E19F18E3E20F48C3E09F092C106C0DF
:102070008E3EA9F18F3E09F08CC144C080915F096A
:102080009091600901979093600980935F09409156
:10209000B1195091B21920918B1A80E060E030E0C4
:1020A0000E946C2980938B1A74C180915F09909172
:1020B000600901979093600980935F094091B1197D
:1020C0005091B21920918B1A30918C1A80E061E006
:1020D0000E946C2990938C1A80938B1A5AC180911C
:1020E0005F099091600901979093600980935F095F
:1020F0004091B1195091B21920918B1A81E060E0A2
:1021000030E013C080915F0990916009019790932E
:10211000600980935F094091B1195091B2192091E3
:102120008B1A30918C1A81E061E00E946C2931C1D8
:10213000C901807F90708037910509F0B1C0C90155
:102140008F7090708730910509F451C088309105E7
:10215000BCF48330910509F43FC0843091054CF400
:102160008130910579F1823091058CF5892B29F127
:1021700012C18530910509F4DBC0069794F5C8C0FB
:102180008B30910509F448C08C30910534F48930C6
:102190009105C1F10A97DCF530C08D30910509F445
:1021A0004FC08D3091050CF43CC08E30910509F480
:1021B00056C00F9709F0EFC061C080913B1B83FFB1
:1021C000EAC0E3C080913B1B83FDE5C0DEC0809187
:1021D0003A1B80FFE0C0D9C080913A1B80FDDBC074
:1021E000D4C080913A1B817409F4D5C0CEC08091CF
:1021F0003A1B817409F0CFC0C8C080913A1B87FF99
:10220000CAC0C3C080913A1B87FDC5C0BEC08091C3
:102210003A1B82FFC0C0B9C080913A1B82FDBBC08F
:10222000B4C090913A1B991F9927991F80913B1B2D
:102230008695869586958170981709F0A6C0ABC0E3
:1022400090913A1B991F9927991F80913B1B869566
:10225000869586958170981709F09DC096C09091DB
:102260003A1B991F9927991F80913B1B869586954C
:1022700086958170981709F088C04AC020913A1B52
:10228000922F991F9927991F80913B1B86958695C0
:1022900086958170981709F07EC026FD7CC075C0B8
:1022A000842F887F803E09F048C0C9018F709070EC
:1022B0008130910509F1823091051CF4892B69F177
:1022C0006AC08230910559F0039709F064C080918B
:1022D0008D1A90918E1A892B09F05DC056C080919D
:1022E0008D1A90918E1A019790938E1A80938D1A61
:1022F000892B09F450C049C080918D1A90918E1A93
:10230000019790938E1A80938D1A892B09F443C0FC
:1023100080913A1B86FF3FC038C080918D1A909102
:102320008E1A019790938E1A80938D1A892B99F1AA
:1023300080913A1B86FD2FC028C0883E51F5493E4A
:1023400001F14A3E18F4483E21F505C04A3EC9F065
:102350004B3EF9F41AC06091931A7091941A62502E
:1023600070407093941A6093931A40915F09509152
:1023700060094E5F5F4F8091361B9091371B0E9422
:10238000992581E08093DE1A04C081E08093DE1AF3
:1023900002C090E001C091E08091DE1A8130A9F581
:1023A00060915F0970916009992371F08091341BED
:1023B0009091351B0E945D25992787FD90959093FC
:1023C000621A8093611A13C08091341B9091351B5F
:1023D0000E946F259093621A8093611A80915F0921
:1023E0009091600901969093600980935F098091B4
:1023F0005F09909160092091611A3091621A820FF1
:10240000931F9093600980935F0980915F09909179
:10241000600901969093600980935F090C94F11D07
:102420008091271A1092271A8093281A8091341BC2
:102430009091351B60915F09709160096F5F7F4FCC
:102440007093600960935F09615070400E946F252E
:1024500080932A1A90932B1A8093B3198091281A8B
:10246000482F41704093721AD093E01AC093DF1A3C
:10247000869590E08631910509F465C08731910514
:10248000B4F48A30910509F444C08B3091053CF4D2
:102490008230910521F1069709F053C1D6C08E30E4
:1024A000910509F46AC0429709F04BC19AC0803582
:1024B000910509F4FEC08135910544F48A319105F6
:1024C00009F4DDC04E9709F03CC171C0813591051A
:1024D00009F413C18435910509F033C19CC02091E2
:1024E0002A1A30912B1A80E0642FAE010E949124A9
:1024F0008091721A882311F40C94F11D80915F0968
:102500009091600901969093600980935F090C9403
:10251000F11D20912A1A30912B1A81E0642FAE010F
:102520000E9491248091721A882311F40C94F11D59
:1025300080915F0990916009019690936009809362
:102540005F090C94F11D20912A1A30912B1A82E018
:10255000642FAE010E9491248091721A882311F495
:102560000C94F11D80915F09909160090196909300
:10257000600980935F090C94F11D20912A1A309113
:102580002B1A83E0642FAE010E9491248091721A6D
:10259000882311F40C94F11D80915F0990916009DA
:1025A00001969093600980935F090C94F11D20912E
:1025B0002A1A30912B1A84E0642FAE010E949124D4
:1025C0008091721A882311F40C94F11D80915F0997
:1025D0009091600901969093600980935F090C9433
:1025E000F11D20912A1A30912B1A85E0642FAE013B
:1025F0000E9491248091721A882311F40C94F11D89
:1026000080915F0990916009019690936009809391
:102610005F090C94F11D20912A1A30912B1A86E043
:10262000642FAE010E9491248091721A882311F4C4
:102630000C94F11D80915F0990916009019690932F
:10264000600980935F090C94F11D20912A1A309142
:102650002B1A87E0642FAE010E9491248091721A98
:10266000882311F40C94F11D80915F099091600909
:1026700001969093600980935F090C94F11D20915D
:102680002A1A30912B1A88E0642FAE010E949124FF
:102690008091721A882311F40C94F11D80915F09C6
:1026A0009091600901969093600980935F090C9462
:1026B000F11D60912A1A70912B1A442359F08091D0
:1026C000381B9091391B0E946F2590938C1A809330
:1026D0008B1A08C08091381B9091391B0E945D2590
:1026E00080938B1A80915F09909160090196909375
:1026F000600980935F090C94F11D60912A1A709112
:102700002B1A442359F040918B1A50918C1A8091C6
:10271000381B9091391B0E94992508C08091381B65
:102720009091391B40918B1A0E94892580915F09F5
:102730009091600901969093600980935F090C94D1
:10274000F11D2091B31930E08091271A9091281A39
:10275000822B932B9093281A8093271A60915F09FC
:10276000709160098091341B9091351B0E946F25F8
:1027700080932A1A90932B1A8093B319E091281A08
:102780008E2F81708093721AE695F0E0EE50FF4F25
:10279000EE0FFF1F0590F491E02D19949091281AE7
:1027A000917080913A1B8E7F892B80933A1B809188
:1027B0005F099091600901979093600980935F0988
:1027C0000C94F11D9091281A9170990F80913B1BE8
:1027D0008D7F892B80933B1B80915F0990916009CD
:1027E00001979093600980935F090C94F11D90917B
:1027F000281A9170990F990F80913B1B8B7F892B21
:1028000080933B1B80915F099091600901979093A1
:10281000600980935F090C94F11D0E94E426809169
:10282000281AE091DF1AF091E01AA091E41AB09111
:10283000E51A80FF06C0808191818D939C930C9452
:10284000F11D80818C930C94F11D0E94E42640912F
:10285000E41A5091E51A6091721AE091DF1AF09132
:10286000E01A662319F02081318102C0208130E016
:1028700080E00E9491240C94F11D0E94E426409176
:10288000E41A5091E51A6091721AE091DF1AF09102
:10289000E01A662319F02081318102C0208130E0E6
:1028A00081E00E9491240C94F11D0E94E426409145
:1028B000E41A5091E51A6091721AE091DF1AF091D2
:1028C000E01A662319F02081318102C0208130E0B6
:1028D00082E00E9491240C94F11D0E94E426409114
:1028E000E41A5091E51A6091721AE091DF1AF091A2
:1028F000E01A662319F02081318102C0208130E086
:1029000083E00E9491240C94F11D0E94E4264091E2
:10291000E41A5091E51A6091721AE091DF1AF09171
:10292000E01A662319F02081318102C0208130E055
:1029300085E00E94912480913A1B8E7F80933A1B00
:1029400080913B1B877F80933B1B0C94F11D0E9461
:10295000E4264091E41A5091E51A6091721AE091D0
:10296000DF1AF091E01A662319F02081318102C04C
:10297000208130E087E00E94912480913A1B8E7F75
:1029800080933A1B80913B1B877F80933B1B0C9469
:10299000F11D0E94E4264091E41A5091E51A6091DD
:1029A000721AE091DF1AF091E01A662319F0208183
:1029B000318102C0208130E088E00E949124809122
:1029C0003A1B8E7F80933A1B80913B1B877F8093BD
:1029D0003B1B0C94F11D0E94E4264091E41A509197
:1029E000E51A6091721AE091DF1AF091E01A6623FD
:1029F00019F02081318102C0208130E084E00E9402
:102A000091240C94F11D0E94E4264091E41A509107
:102A1000E51A6091721AE091DF1AF091E01A6623CC
:102A200019F02081318102C0208130E086E00E94CF
:102A3000912480913A1B8E7F80933A1B80913B1B9F
:102A4000877F80933B1B0C94F11D0E94E4268091AC
:102A5000281AE091DF1AF091E01AA091E41AB091DF
:102A6000E51A80FF13C08D919C91119790932B1ABA
:102A700080932A1A808191818D939C9380912A1A48
:102A800090912B1A918380830C94F11D8C918093EB
:102A9000B31980818C93E091DF1AF091E01A809154
:102AA000B31980830C94F11D8091271A9091281AF4
:102AB0000E94C5259093E51A8093E41A60915F09FE
:102AC000709160098091341B9091351B0E946F2595
:102AD000282F80932A1A90932B1A8093B31910925F
:102AE000721A9091281A90FF19C081E08093721A8F
:102AF000892F869580FF09C0822F992787FD9095A1
:102B000090932B1A80932A1A09C080915F099091A3
:102B1000600901969093600980935F0980915F0935
:102B20009091600901969093600980935F0980916C
:102B3000271A869586958695877090E08330910553
:102B400009F45DC0843091055CF48130910571F128
:102B5000823091050CF03FC0892B99F00C94F11D47
:102B60008530910509F473C0853091050CF45BC084
:102B70008630910509F47FC0079711F00C94F11D80
:102B80008EC04091E41A5091E51A6091721A662342
:102B900029F020912A1A30912B1A03C02091B319E1
:102BA00030E080E00E9491240C94F11D4091E41AE1
:102BB0005091E51A6091721A662329F020912A1A21
:102BC00030912B1A03C02091B31930E087E00E94A6
:102BD00091240C94F11D4091E41A5091E51A6091F2
:102BE000721A662329F020912A1A30912B1A03C0F9
:102BF0002091B31930E081E00E949124F2C7409106
:102C0000E41A5091E51A6091721A662329F0209116
:102C10002A1A30912B1A03C02091B31930E083E0B7
:102C20000E949124DEC74091E41A5091E51A609108
:102C3000721A662329F020912A1A30912B1A03C0A8
:102C40002091B31930E085E00E949124CAC74091D9
:102C5000E41A5091E51A6091721A662329F02091C6
:102C60002A1A30912B1A03C02091B31930E082E068
:102C70000E949124B6C74091E41A5091E51A6091E0
:102C8000721A662329F020912A1A30912B1A03C058
:102C90002091B31930E088E00E949124A2C74091AE
:102CA000E41A5091E51A6091721A662329F0209176
:102CB0002A1A30912B1A03C02091B31930E084E016
:102CC0000E9491248EC78091271A9091281A0E9401
:102CD000C525EC019093851A8093841A6091281A77
:102CE00061706093721A8091271A869586958695F1
:102CF000877090E08430910509F456C085309105C5
:102D000054F482309105A9F1833091050CF03EC056
:102D1000892B69F066C78630910509F4E2C08630D8
:102D200091050CF488C0079709F05BC737C166238B
:102D300029F020912A1A30912B1A03C02091B3193F
:102D400030E086E0AE010E94912480913A1B8E7F94
:102D500080933A1B80913B1B877F80933B1B809124
:102D60005F099091600901969093600980935F09D3
:102D700038C7662339F08881998180959095998329
:102D800088832FC78881809588832BC7662341F06D
:102D900088819981909581959F4F9983888321C7D8
:102DA0008881819588831DC7662319F1688179819F
:102DB00080E090E020918B1A30918C1A40E050E036
:102DC0000E949A2C60932C1B70932D1B80932E1BBA
:102DD00090932F1B70938C1A60938B1ABC018827D9
:102DE00099277093901A60938F1A90E0672B81F067
:102DF0000EC0888120918B1A829FC001112490936C
:102E00008C1A80938B1A90E080918C1A811191E03A
:102E100080913A1B8E7F892B80933A1B90913A1BAD
:102E20009170990F990F990F80913B1B877F892B88
:102E300080933B1BD6C6662371F168817981882710
:102E400077FD8095982F20918B1A30918C1A44270A
:102E500037FD4095542F0E949A2C6093AD197093C2
:102E6000AE198093AF199093B01970938C1A609338
:102E70008B1ABC01992777FD9095892F9B01709340
:102E8000901A60938F1A80918C1A87FF18C02F3F79
:102E90003105A9F410C0888120918B1A8202C001EB
:102EA000112490938C1A80938B1A87FF08C080910D
:102EB0008C1A8F3F21F480913A1B8E7F03C0809142
:102EC0003A1B816080933A1B90913A1B9170990F45
:102ED000990F990F80913B1B877F892B80933B1B18
:102EE00080C66623E1F1288139812115310529F455
:102EF0008BEC95E00E942E2B74C6E0908F1AF09018
:102F0000901A00E010E08701FF24EE2480918B1AD4
:102F100090918C1AA0E0B0E0E82AF92A0A2B1B2B2A
:102F2000E0922C1BF0922D1B00932E1B10932F1B55
:102F300040E050E0C801B7010E94EC2C30938C1A9D
:102F400020938B1A2881398140E050E0C801B701F5
:102F50000E94EC2C7093901A60938F1A42C688815D
:102F6000882329F48BEC95E00E942E2B3AC6209101
:102F70008B1A30918C1A30932B1A20932A1A68815D
:102F8000C90170E00E94C52C60938B1A6881C90149
:102F900070E00E94C52C80938C1A23C66623C1F171
:102FA000E0908F1AF090901A00E010E08701FF2463
:102FB000EE2480918B1A90918C1AA0E0B0E0E82A60
:102FC000F92A0A2B1B2BE092AD19F092AE1900934F
:102FD000AF191093B01928813981442737FD4095E6
:102FE000542FC801B7010E940E2D30938C1A2093E4
:102FF0008B1A28813981442737FD4095542FC80109
:10300000B7010E940E2D7093901A60938F1AE9C534
:1030100020918B1A30918C1A3093621A2093611A86
:103020006881772767FD7095C9010E94D92C60934C
:103030008B1A6881772767FD7095C9010E94D92C8A
:1030400080938C1ACEC58091271A9091281A0E94DD
:10305000C525FC019093851A8093841A8091271AC4
:10306000869586958695877090E0843091054CF41E
:103070008230910594F5009761F0019709F0B1C590
:103080001AC0863091050CF449C0069709F0A9C50D
:103090004CC010913A1B117080E06091721AAF0120
:1030A00021E030E00E94912480913A1B8E7F812B99
:1030B00080933A1B96C510913A1B117082E0609183
:1030C000721AAF0121E030E00E94912480913A1BF6
:1030D0008E7F812B80933A1B84C56091931A7091E7
:1030E000941A625070407093941A6093931A4091AE
:1030F0005F09509160094E5F5F4F8091361B909140
:10310000371B0E949925E091841AF091851A8081DD
:1031100091819093600980935F0963C5808191815B
:103120009093600980935F095CC56091931A7091D8
:10313000941A625070407093941A6093931A40816D
:1031400051818091361B9091371B0E94992549C56A
:1031500060915F09709160096150704070936009DF
:1031600060935F098091281A80FF12C08091341B00
:103170009091351B0E945D258093B31980915F0962
:103180009091600901969093600980935F0903C054
:1031900083E08093B3198091B319813211F08631A5
:1031A00019F40E94DB0D1DC56091931A7091941A59
:1031B000625070407093941A6093931A40913A1B36
:1031C00050913B1B8091361B9091371B0E94992593
:1031D00080913B1B8C7F80933B1B6091931A709175
:1031E000941A625070407093941A6093931A4091AD
:1031F0008D1A50918E1A8091361B9091371B0E9428
:1032000099256091931A7091941A6250704070934E
:10321000941A6093931A40915F09509160098091CC
:10322000361B9091371B0E9499256091B31970E06D
:10323000660F771F660F771F80E090E00E946F2572
:103240009093600980935F096091B31970E0660FF5
:10325000771F660F771F6E5F7F4F80E090E00E94C0
:103260006F2590938E1A80938D1ABBC48091281A73
:1032700080FF40C06091931A7091941A8091361B20
:103280009091371B0E946F259093600980935F098E
:103290006091931A7091941A6E5F7F4F7093941A95
:1032A0006093931A8091361B9091371B0E946F2573
:1032B00090938E1A80938D1A6091931A7091941A3C
:1032C0006E5F7F4F7093941A6093931A8091361BB0
:1032D0009091371B0E946F2590933B1B80933A1B64
:1032E0008091931A9091941A02969093941A8093D5
:1032F000931A77C46091931A7091941A6250704037
:103300007093941A6093931A40913A1B50913B1B0F
:103310008091361B9091371B0E94992580913B1B11
:103320008C7F80933B1B6091931A7091941A62502A
:1033300070407093941A6093931A40918D1A509133
:103340008E1A8091361B9091371B0E9499256091AF
:10335000931A7091941A625070407093941A60930B
:10336000931A40915F09509160098091361B9091AA
:10337000371B0E94992584E08093B31980E090E088
:1033800060E170E00E946F259093600980935F096F
:103390006091B31970E0660F771F660F771F6E5F3D
:1033A0007F4F80E090E00E946F2590938E1A80936B
:1033B0008D1A17C460915F09709160096150704067
:1033C0007093600960935F098091281A80FF05C09F
:1033D00010922B1A10922A1A0AC08091341B9091D5
:1033E000351B0E946F2590932B1A80932A1A6091A7
:1033F000931A7091941A8091361B9091371B0E94FA
:103400006F259093600980935F098091931A909142
:10341000941A20912A1A30912B1A820F931F029628
:103420009093941A8093931ADCC380915F099091D2
:10343000600901979093600980935F098091281A31
:1034400080FF02C00C946D0E10935E098091341BB6
:103450009091351B41C080915F099091600901975F
:103460009093600980935F098091281A80FF02C0C1
:103470000C946D0E10935E098091381B9091391B4E
:103480002BC080915F09909160090197909360092A
:1034900080935F098091281A80FF02C00C946D0E02
:1034A00010935E098091361B9091371B15C0809157
:1034B0005F099091600901979093600980935F097B
:1034C0008091281A80FF02C00C946D0E10935E0943
:1034D0008091321B9091331B9093DD1A8093DC1AFC
:1034E0000C946D0E80915F09909160090197909303
:1034F000600980935F0980918B1A6091911A709195
:10350000921A680F711D8091381B9091391B0E948F
:103510005D2580938B1A65C380915F099091600946
:1035200001979093600980935F098091281A80FF2A
:1035300058C380913A1B982F909591708E7F892B5C
:1035400080933A1B4EC38091271A9091281A0E94AB
:10355000C5259093851A8093841A60915F097091B4
:1035600060098091341B9091351B0E946F25282F94
:1035700080932A1A90932B1A8093B3198091271A5B
:103580008873C9F48091721AE091841AF091851AB7
:10359000882381F080912A1A90912B1A918380833D
:1035A00080915F09909160090196909360098093E2
:1035B0005F0901C0208380915F09909160090196A5
:1035C0009093600980935F090CC38091271A8695B8
:1035D0008695869587708093E61A8091281A80FDDB
:1035E0001FC081608093281A8091271A9091281A11
:1035F0000E94C525DC019093E01A8093DF1A809128
:10360000DB1A843008F0EDC2E091E61AF0E0EE0F2C
:10361000FF1FEE5CF44E8D919C9191838083E1C2FB
:103620008091271A9091281A0E94C525EC01909349
:10363000851A8093841A8091E61A882309F0D1C2F2
:103640006091931A7091941A8091361B9091371B58
:103650000E946F25998388838091931A9091941A80
:1036600002969093941A8093931ABBC28091271A62
:10367000869586958695877080935E1A8091281A24
:1036800080FD1DC081608093281A8091271A909137
:10369000281A0E94C525DC019093851A8093841A0C
:1036A000E0915E1AE43008F09CC2F0E0EE0FFF1FDC
:1036B000EE5CF44E808191818D939C9392C28091B7
:1036C000271A9091281A0E94C5259093851A8093F5
:1036D000841AE0915E1AF0E0EE0FFF1FE557F54EF9
:1036E0008091821A9091831A918380837AC280910B
:1036F0005F099091600901979093600980935F0939
:103700002091281A822F869590E09595879595951A
:103710008795837090709093311B8093301BEC01E0
:10372000CC0FDD1F20FF18C06091931A7091941A7E
:103730008091361B9091371B0E946F25CE5CD44E32
:10374000998388838091931A9091941A029690930A
:10375000941A8093931A45C26091931A7091941AA7
:10376000625070407093941A6093931ACE5CD44E5A
:10377000488159818091361B9091371B0E94992571
:1037800030C28091271A869586958695877080939A
:103790005E1A8091271A9091281A0E94C525FC0173
:1037A0009093851A8093841A81E08093F11A809116
:1037B000281A282F269580FF2AC180819181909315
:1037C0002B1A80932A1A20FF11C180915E1A823031
:1037D00018F0843068F404C080918D1A8F700AC08C
:1037E00080918D1A61E10E94B92C9093F11AFEC06C
:1037F00080918D1A8093F11AF9C080915E1A8330FE
:1038000009F461C0843048F4813019F160912A1ABA
:1038100070912B1A8230D0F50AC0853009F484C02B
:10382000853008F46DC0873009F0DAC08DC0272FCD
:10383000221F2227221F80913A1B8E7F822B80938A
:103840003A1B660F771F90E081709070862B972B44
:1038500018C090912A1A917080913A1B8E7F892B03
:1038600080933A1B20912A1A30912B1A369527956E
:1038700080FD03C080E090E002C080E090E8822BF1
:10388000932B90932B1A80932A1AAAC080913A1BEB
:10389000282F21702093E31A972F991F9927991F9A
:1038A0008E7F892B80933A1B660F771F40E050E094
:1038B000222311F041E050E0462B572B50932B1A56
:1038C00040932A1A8DC080913A1B282F2170209393
:1038D000E31A90912A1A91708E7F892B80933A1B5C
:1038E00040912A1A50912B1A56954795222319F484
:1038F00080E090E002C080E090E8842B952BC1CF5F
:1039000020E080912A1A90912B1A97FD21E0809156
:103910003A1B8E7F822B80933A1B80912A1A9091BA
:103920002B1A880F991F3AC090912A1A9170809192
:103930003A1B8E7F892B80933A1B80912A1A909193
:103940002B1A969587959DCF1092E31A80912A1A8B
:1039500090912B1A97FF02C0A093E31A90913A1B03
:10396000E091E61AF0E0EE0FFF1FE557F54E80817B
:1039700081709E7F982B90933A1B20912A1A309148
:103980002B1A369527958091E31A882319F480E045
:1039900090E002C080E090E8822B932B90932B1A4A
:1039A00080932A1A20E0892B09F421E02295220F26
:1039B000220F207C80913A1B8F7B822B80933A1BB5
:1039C00020E080912A1A90912B1A97FD21E02795EB
:1039D0002227279580913A1B8F77822B80933A1B61
:1039E0008091F11A81508093F11A01C0A1E0809179
:1039F000F11A882309F001CFE091841AF091851A19
:103A000080912A1A90912B1A91838083EAC0808139
:103A10008093B31920FFD8C080915E1A823018F0CD
:103A2000843068F404C080918D1A87700AC0809138
:103A30008D1A69E00E94B92C9093F11AC5C080914B
:103A40008D1A8093F11AC0C080915E1A833009F4F8
:103A50004AC0843038F48130E9F03091B3198230B3
:103A600058F50AC0853009F460C0853008F44EC0AE
:103A7000873009F0A3C065C0932F991F9927991F1C
:103A800080913A1B8E7F892B80933A1B330F817074
:103A9000832B0FC02091B319922F917080913A1B04
:103AA0008E7F892B80933A1B269580FF2DC080E85E
:103AB000822B8093B31982C080913A1B282F2170EA
:103AC0002093E31A932F991F9927991F8E7F892B93
:103AD00080933A1B932F990F80E0211181E0982B5E
:103AE0009093B3196BC080913A1B382F317030938B
:103AF000E31A2091B319922F91708E7F892B8093B6
:103B00003A1B2695332399F680E0D2CF90E080913E
:103B1000B31987FD91E080913A1B8E7F892B8093AA
:103B20003A1B8091B319880F2BC08091B319282FAD
:103B3000217090913A1B9E7F922B90933A1B869511
:103B4000B8CF1092E31A8091B31987FF02C0409357
:103B5000E31A2091B31990913A1BE091E61AF0E034
:103B6000EE0FFF1FE557F54E808181709E7F982BE9
:103B700090933A1B26958091E31A811180E8822B5D
:103B80008093B31990E0882309F491E09295990FFE
:103B9000990F907C80913A1B8F7B892B80933A1BE5
:103BA00090E08091B31987FD91E0979599279795BB
:103BB00080913A1B8F77892B80933A1B8091F11A61
:103BC00081508093F11A01C041E08091F11A88235D
:103BD00009F03ACFE091841AF091851A8091B319D7
:103BE0008083DF91CF911F910F91FF90EF90089507
:103BF0008F929F92BF92CF92DF92EF92FF920F939C
:103C00001F93CF93DF93EC0165E6862E69E0962E35
:103C1000880E991ECC24DD2439C0C114D10429F0AA
:103C20000894E11CF11C011D111DBB248FEFE81647
:103C30008FEFF80687E0080780E0180711F0BB2433
:103C4000B3940E94422B882319F0BB2029F422C090
:103C5000E1E0BE1611F31EC00E943B2BF4018083ED
:103C600021960894C11CD11C83E20E942B2BC60113
:103C70008F719070892B21F484E394E00E942E2BA5
:103C80000894811C911CF1E0BF1621F4EE24FF245E
:103C90008701D5CF87EE95E00E942E2BC050D140F2
:103CA000D0936409C0936309DF91CF911F910F9165
:103CB000FF90EF90DF90CF90BF909F908F900895EE
:103CC000EF92FF920F931F93DF93CF930F92CDB795
:103CD000DEB78DEE95E00E942E2B91E0EE24FF24BE
:103CE000870110C00894E11CF11C011D111D90E01A
:103CF0008FEFE8168FEFF8068EE0080780E01807D0
:103D000009F091E099830E94422B9981882319F050
:103D1000992321F407C0913029F304C00E943B2B62
:103D200081E001C080E00F90CF91DF911F910F9152
:103D3000FF90EF9008950F931F9380EF95E00E94FE
:103D40002E2B80918B1A90918C1A0E94112C84EF4B
:103D500095E00E942E2B8091911A9091921A0E94C8
:103D6000112C8AEF95E00E942E2B80918D1A909154
:103D70008E1A0E94112C80E096E00E942E2B8091DA
:103D80008F1A9091901A0E94112C86E096E00E9462
:103D90002E2B8091931A9091941A0E94112C8CE0F2
:103DA00096E00E942E2B8091951A9091961A0E946F
:103DB000112C82E196E00E942E2B8091971A90910F
:103DC000981A0E94112C88E196E00E942E2B809177
:103DD000991A90919A1A0E94112C8EE196E00E94F5
:103DE0002E2B8091381B9091391B0E94112C84E25C
:103DF00096E00E942E2B8091321B9091331B0E94E3
:103E0000112C8AE296E00E942E2B8091361B909115
:103E1000371B0E94112C80E396E00E942E2B80918C
:103E2000341B9091351B0E94112C86E396E00E9472
:103E30002E2B80915F09909160090E94112C8CE3D8
:103E400096E00E942E2B80913B1B86958695869549
:103E50008170805D0E942B2B80913B1B86958695FF
:103E60008170805D0E942B2B80913B1B8695817019
:103E7000805D0E942B2B80913B1B8170805D0E9496
:103E80002B2B8DE20E942B2B0BE31BE1F80182917F
:103E90008F01881F8827881F805D0E942B2BF801C7
:103EA00080818295869586958170805D0E942B2BFE
:103EB000F801808182958170805D0E942B2BF80132
:103EC0008081869586958170805D0E942B2BF801FC
:103ED00080818170805D0E942B2B84E394E00E949E
:103EE0002E2B1F910F9108950F931F93CF93DF9364
:103EF000282FEA014617570730F070936209609344
:103F0000610901E009C080911F09909120099093F7
:103F100062098093610900E02F3F29F470936209E0
:103F20006093610900E010E08091341B9091351B93
:103F30000E94112C8AE30E942B2B809161099091A1
:103F400062090E94112C8EE496E00E942E2B809133
:103F50006109909162096CE27AE10E94D2018CE2DF
:103F60009AE10E942E2B84E394E00E942E2B1F5F87
:103F7000013041F48091610990916209C817D90715
:103F800098F602C0103180F2809161099091620927
:103F90009093200980931F09DF91CF911F910F917A
:103FA00008950F931F93CF93DF93CBE9DAE110E0ED
:103FB00000E2112339F4802F0E94F82B81E596E06E
:103FC0000E942E2B88810E94F82B1F5F103131F444
:103FD00084E394E00E942E2B10E003C080E20E9454
:103FE0002B2B21960F3511F00F5FE3CFDF91CF918F
:103FF0001F910F9108953F924F925F926F927F921F
:104000008F929F92AF92BF92CF92DF92EF92FF92E8
:104010000F931F93DF93CF93CDB7DEB764970FB69F
:10402000F894DEBF0FBECDBF382E6090341B709069
:10403000351B4617570718F05A017B0109C0E0905D
:104040001D09F0901E09AFE7AA2EB12CAE0CBF1CC3
:104050000894A11CB11CB0921E09A0921D090894DD
:10406000A108B108FFE0CF2ED12CCE20DF20C11453
:10407000D10411F4DD2424C0C3010E94112C8AE371
:104080000E942B2BC701807F0E94112C8EE496E0AA
:104090000E942E2B00E010E04E010894811C911C20
:1040A000E0E25E2E85E596E00E942E2BF401E00F03
:1040B000F11F50820F5F1F4F0C151D0598F3DC2C6C
:1040C0004E010894811C911C71E1472E512C4C0E1D
:1040D0005D1E4DC0DD2069F4C3010E94112C8AE3EE
:1040E0000E942B2BC7010E94112C8EE496E00E94A7
:1040F0002E2B0D2D10E0332029F4C301B7010E94AF
:104100005D2504C0C301B7010E942729080D191DB0
:10411000F8018083F401ED0DF11D80810E94F82BE0
:10412000D394F0E1DF16E9F485E596E00E942E2BAA
:104130008401F801D0808D2D90E00E94412E892BC2
:1041400011F08D2D01C08EE20E942B2B0F5F1F4FAF
:104150000415150571F784E394E00E942E2BDD24ED
:1041600003C080E20E942B2B0894E11CF11CAE14CA
:10417000BF0408F0AFCF64960FB6F894DEBF0FBE51
:10418000CDBFCF91DF911F910F91FF90EF90DF9006
:10419000CF90BF90AF909F908F907F906F905F90E7
:1041A0004F903F9008951F93182F0E94862E0097DE
:1041B00011F48FEF01C0811B1F910895AF92BF9240
:1041C000DF92EF92FF920F931F93DF93CF93CDB7C0
:1041D000DEB7CA55D0400FB6F894DEBF0FBECDBFD4
:1041E0008E010F5F1F4F88E2F80111928A95E9F75F
:1041F000C8010E94482B8981882311F48DE033C1C6
:10420000C80169E576E00E94572E8C01B9E2AB2E19
:10421000B12CAC0EBD1EC501B8010E94702E7501F7
:10422000DD24D3940CC080E090E069E576E00E9444
:10423000572E8C01D394C701B8010E94702E8AE0DA
:1042400090E0E80EF91E012B71F71D2D125013306E
:104250000CF008C1F50101900020E9F73197EA1947
:10426000FB09329708F0FEC089A590E00E944F2E0E
:10427000982F8093F21A8237F8F4803708F0F5C04F
:10428000893609F455C08A3668F4883608F0EAC0E1
:10429000853608F0EAC08F3309F4E7C0843609F0A8
:1042A000E1C01FC08C3608F4DDC08E3608F4DDC0D6
:1042B0008F3609F0D7C040C0853709F48AC08637E9
:1042C00030F4833771F1843708F07FC053C08837EA
:1042D00009F4BDC08A3709F4C8C0863709F0C2C0E6
:1042E000C4C0113021F0123009F077C017C082E04D
:1042F0008093F71AC5010A9660E070E040E150E053
:104300000E94292D9B017093F41A6093F31A21588F
:104310003F4F3093F61A2093F51AA7C01093F71A5F
:1043200076C0113009F49EC0123009F09BC06FC0F6
:10433000123009F497C05BC0C5010A9660E070E0D6
:1043400040E150E00E94292D7093F41A6093F31A13
:10435000C501449660E070E040E150E00E94292DE4
:104360007093F61A6093F51A6F3F710509F008F41F
:104370007CC078C0113009F475C0123071F582E04C
:104380008093F71ACE01C3960E94C72EBC018BE51D
:1043900096E00E94D32087FD65C0833109F484E153
:1043A0008595992787FD90959093F41A8093F31A39
:1043B000C501449660E070E040E150E00E94292D84
:1043C0007093F91A6093F81A50C011160CF44AC091
:1043D0004CC0113049F01230B9F0112309F042C03D
:1043E00081E08093F71A41C082E08093F71AC501FB
:1043F0000A9660E070E040E150E00E94292D709341
:10440000F41A6093F31A31C083E08093F71AC50160
:104410000A9660E070E040E150E00E94292D709320
:10442000F41A6093F31AC501449660E070E040E12D
:1044300050E00E94292D7093F61A6093F51A20918E
:10444000F31A3091F41A6217730778F40BC080E402
:104450008093F21A113049F48BA9853631F4909388
:10446000F21A03C080E48093F21AC65ADF4F0FB6E7
:10447000F894DEBF0FBECDBFCF91DF911F910F919A
:10448000FF90EF90DF90BF90AF9008950E94640E70
:104490000E9431298823D1F388E00E94DB0DF6CFFA
:1044A00089E498E00E942E2B89E798E00E942E2B49
:1044B0008FEA98E00E942E2B86EE98E00E942E2B29
:1044C00086E796E00E942E2B81EB96E00E942E2B31
:1044D00082EE96E00E942E2B0E94DE2084E394E080
:1044E0000E942E2B8091F21A8F3609F443C1803737
:1044F00028F5863609F482C1873680F48F3309F4B3
:1045000073C1803420F48D3009F074C177C18336D3
:1045100009F494C0843609F06DC12EC0893609F4BF
:1045200075C08A3620F4873609F064C167C08C36BE
:1045300009F479C08D3609F05DC1DFC0843709F414
:10454000B7C0853768F4813709F451C1813708F461
:104550001EC1823709F480C0833709F04BC144C0C3
:10456000863709F43EC18637E8F0883709F416C16A
:104570008A3709F03FC130C18091F71A813031F498
:1045800080E061E070E040E050E009C06091F31A23
:104590007091F41A4091F51A5091F61A80E00E9439
:1045A000FB1F2CC18091F71A813031F480E061E06B
:1045B00070E040E050E015C0823051F46091F31A91
:1045C0007091F41A4091F51A5091F61A8FEF09C0C4
:1045D0006091F31A7091F41A4091F51A5091F61AFD
:1045E00080E00E94741F0AC16091F31A7091F41A5E
:1045F0004091F51A5091F61A81E0D1CF809163096C
:1046000090916409892B09F4B2C0E0C04091F31A7B
:104610005091F41A80E060E020E030E00E946C29C4
:104620000E94F82BEBC082E097E00E942E2B80E0E6
:1046300091E00E94F81D0E949501E0C08AE197E098
:104640000E942E2BE5E6FAE011928AE0E63EF8079A
:10465000D9F78DE297E0D0C08091F71A813071F1DF
:10466000E091F31AF091F41AE830F10528F4EE0F16
:10467000FF1FE557F54E0CC03897F093F41AE093FE
:10468000F31AE430F10558F4EE0FFF1FEE5CF44E20
:104690008091F81A9091F91A91838083AFC080912C
:1046A000F81A9091F91A9093600980935F09A6C057
:1046B0000E94640E84E394E00E942E2B0E949B1EB5
:1046C00080915F09909160096CE27AE10E94D201C9
:1046D0008091341B9091351B0E94112C8AE30E941B
:1046E0002B2B80915F09909160090E94112C80E230
:1046F0000E942B2B8CE29AE17FC0809163099091FC
:104700006409892BA1F183E397E00E942E2B0E947C
:104710003B2B90E00E944F2E8093B407893719F00D
:104720008E3689F76BC089E70E942B2B81E597E0D5
:104730000E942E2B409163095091640940505F4FB5
:1047400085E699E060E070E00E94FF2E8CE29AE13D
:104750006EE577E00E94702E8CE29AE16AEF7FE0CE
:1047600045E050E00E94FF2E83E697E045C084EECE
:1047700096E042C04091F31A5091F41A2091F51A34
:104780003091F61A81E060E00E946C2937C08BE618
:1047900097E00E942E2B0E94D11F30C08CE29AE13C
:1047A0006AEF7FE045E050E00E94E72E8EE597E05B
:1047B0006CE27AE10E94672E009759F485E699E051
:1047C00060E070E04FEF5FE00E94E72E0E9446221B
:1047D00015C084E797E010C00E9495010E949B1EBF
:1047E0000DC00E94CE0D0AC00E94810D07C086E94F
:1047F00097E002C08BE997E00E942E2B84E394E0BF
:104800000E942E2B8091F21A813709F061CE089513
:104810000E945B290E94E42A0E94392980E091E0ED
:104820009093600980935F090E94F32A0E94601EA2
:10483000813019F40E945022F9CF8CE29AE16AEF9C
:104840007FE045E050E00E94E72E8EE597E06CE2C5
:104850007AE10E94672E009759F485E699E060E0BE
:1048600070E04FEF5FE00E94E72E0E944622DECF0D
:1048700084E797E00E942E2BD9CF262F21709091AC
:104880003A1B9E7F922B90933A1B70E033E0769513
:1048900067953A95E1F76170660F660F660F909124
:1048A0003B1B977F962B90933B1B8130A1F420E01C
:1048B0004115510509F421E02295220F220F207C99
:1048C00080913A1B8F73952F9078822B892B809340
:1048D0003A1B80E112C0242F90E0442309F491E0B8
:1048E0009295990F990F907C80913A1B8F73207845
:1048F000892B822B80933A1B88E090E040FD9F5FDC
:10490000815019F056954795F9CF90959170990F70
:10491000990F80913A1B8B7F892B80933A1B0895C6
:104920000895EF92FF920F931F93DF93CF9300D0E0
:10493000CDB7DEB7982F8A01613009F05DC08430B1
:1049400099F1853048F48130B9F0813078F08230C7
:1049500059F1833039F41DC0873091F1873050F11F
:104960008830A1F1EE24FF2460E036C0FA01E08037
:10497000F180E20EF31E2FC080913A1B8170790105
:10498000E80EF11CFA010190F081E02DEE0EFF1E01
:1049900022C0FA01E080F180E21AF30A80913A1B0A
:1049A0008170E81AF10817C0F801E080F180E21A7E
:1049B000F30A11C0FA01E080F180E222F3220BC079
:1049C000FA01E080F180E22AF32A05C0FA01E080D2
:1049D000F180E226F3266FB781E0A7019B830E9456
:1049E0003D249B81943009F45EC0963009F45BC08D
:1049F000F801F182E08257C08430A1F1853048F49B
:104A00008130C1F0813078F0823061F1833039F447
:104A10001DC0873091F1873060F1883091F1EE242C
:104A2000FF2460E034C0FA018081E82EFF24E20E0A
:104A3000F11C2CC0FA018081E22EFF24E80EF11C4B
:104A400080913A1B8170E80EF11C20C0FA01808130
:104A5000E82EFF24E21AF10880913A1B8170E81ACF
:104A6000F10814C0F8018081E82EFF24E21AF10851
:104A70000DC0FA018081282307C0FA018081282B0C
:104A800003C0FA0180812827E22EFF246FB780E05F
:104A9000A7019B830E943D249B81943021F0963096
:104AA00011F0F801E0820F900F900F90CF91DF91FD
:104AB0001F910F91FF90EF900895FB0144E0880F44
:104AC000991F4A95E1F7E80FF91F82E2E030F807F5
:104AD00024F4EB59F64F8081089580810895FB01FD
:104AE00054E0880F991F5A95E1F7E80FF91F82E209
:104AF000E030F80750F4EB59F64F8081682F70E0F2
:104B0000918180E0682B792B02C060817181CB019B
:104B10000895FB0164E0880F991F6A95E1F7E80F9B
:104B2000F91F82E2E030F80710F4EB59F64F4083AA
:104B30000895FB0174E0880F991F7A95E1F7E80F5B
:104B4000F91F82E2E030F80710F4EB59F64F40838A
:104B500051830895FC01E556F54E60830895FC01EC
:104B6000E556F54E608371830895FC01E556F54ED8
:104B700080810895FC01E556F54E208130E0918159
:104B800080E0282B392BC9010895492F2091381B2B
:104B90003091391B3093311B2093301B782F729545
:104BA000769576957370682F6770713041F072302A
:104BB00031F1E0E0F0E0733009F047C0EEC08091E1
:104BC0005F0990916009E091341BF091351B24E05E
:104BD000EE0FFF1F2A95E1F7E80FF91F22E2E03000
:104BE000F20714F4EB59F64F2081E22FFF27E7FD7F
:104BF000F09501969093600980935F0926C04091DB
:104C00005F0950916009E091341BF091351B84E0FD
:104C1000EE0FFF1F8A95E1F7E40FF51F82E2E03007
:104C2000F80750F4EB59F64F8081282F30E091813E
:104C300080E0282B392B02C020813181F9014E5FA1
:104C40005F4F5093600940935F09633071F16430A6
:104C500028F46130A1F06230E8F40CC0653099F1BD
:104C6000653060F16630A1F1673009F46BC020E077
:104C700030E06EC02091971A3091981A04C02091AC
:104C8000991A30919A1A8091911A9091921A280F3C
:104C9000391F5CC02091971A3091981A8091951A0B
:104CA0009091961A280F391F42C02091991A30917D
:104CB0009A1A8091951A9091961AE9CF2091971A95
:104CC0003091981A43C02091991A30919A1A3EC097
:104CD000772329F540915F0950916009E091341BD9
:104CE000F091351BB4E0EE0FFF1FBA95E1F7E40F2A
:104CF000F51F22E2E030F20748F4EB59F64F9181BC
:104D000080E0208130E0282B392B02C020813181C6
:104D10004E5F5F4F5093600940935F0919C0F09355
:104D2000621AE093611A2091951A3091961A2E0F0B
:104D30003F1F8091361B9091371B9093311B8093BE
:104D4000301B06C02091911A3091921A2E0F3F1FEE
:104D500080915E09813041F48091DC1A9091DD1AD6
:104D60009093311B8093301B8091301B9091311BAD
:104D7000A4E0880F991FAA95E1F7820F931F42E2E2
:104D80008030940720F4AC014B59564F01C0AC0160
:104D90003093831A2093821A13C0862F90E040FF2D
:104DA00004C0AC01440F551F09C066956695AC015F
:104DB00043705070440F551F460F511D4557554EB7
:104DC00010925E09CA0108959091271A96959695BA
:104DD0009695977090935E1A8091281A292F30E04B
:104DE00080FF03C0220F331F08C09695969523704D
:104DF0003070220F331F290F311D2557354E309348
:104E0000E01A2093DF1A8091271A9091281A0E94A5
:104E1000C5259C019093E51A8093E41A8091281A85
:104E2000869580FF0CC08091DF1A9091E01A309334
:104E3000E01A2093DF1A9093E51A8093E41A0895FC
:104E4000DF92EF92FF920F931F93DF93CF93CDB733
:104E5000DEB762970FB6F894DEBF0FBECDBFE62E69
:104E6000D72EF42EDE011196E1E2F9E026E0019062
:104E70000D922150E1F718861F826E2D7D2D40E1A5
:104E800050E00E94D12EAE2DBD2DFD0101900020DD
:104E9000E9F73197EA1BFB0BFE1A8E01075F1F4FE4
:104EA000C801BE016F5F7F4F4F2D50E00E94772EEB
:104EB000F801EF0DF11D1082C8016E2D7D2D0E94AD
:104EC0005C2E8E2D9D2DB8010E94702E8E2D9D2D55
:104ED0000E94C72E62960FB6F894DEBF0FBECDBFFC
:104EE000CF91DF911F910F91FF90EF90DF90089588
:104EF0007F928F929F92AF92BF92CF92DF92EF926A
:104F0000FF920F931F93DF93CF93CDB7DEB7A89790
:104F10000FB6F894DEBF0FBECDBF4C015A0184E13D
:104F2000DE011196FD01982F11929A95E9F79E01E5
:104F30002B5E3F4FF90111928A95E9F7762E729414
:104F40007694769483E0782207E0C02EC622F1E0C2
:104F50007F1629F082E0781609F067C035C0E0912D
:104F6000341BF091351B14E0EE0FFF1F1A95E1F78B
:104F7000E80DF91D92E2E030F90714F4EB59F64F11
:104F8000D080D7FE03C069E279E002C06BE279E02D
:104F90007E010894E11CF11CC7010E94702ED7FC11
:104FA000D1948E010B5E1F4F8D2D992787FD909513
:104FB000B80142E00E942027C701B8010E945C2E80
:104FC0000894811C911C35C0CD016BE279E00E94F0
:104FD000702EE091341BF091351BB4E0EE0FFF1FF3
:104FE000BA95E1F7E80DF91D82E2E030F80750F4D8
:104FF000EB59F64F8081282F30E0918180E0282BFB
:10500000392B02C020813181C901BE016B5E7F4F07
:1050100044E00E942027BC01CE0101960E945C2E34
:10502000E2E0F0E08E0E9F1E04C0F3E07F1609F46C
:105030008BC080915E09813031F4C50166E87AE168
:105040000E94702E02C0F5011082F3E0CF1609F124
:10505000FC1530F081E0C816A1F08C15B0F00DC041
:1050600095E0C916F1F0C916C0F0E6E0CE16E9F0F9
:10507000F7E0CF1609F050C04AC0C5016DE279E0F3
:1050800049C0C50164E379E045C0C5016BE379E03F
:1050900041C0C50162E479E03DC0C50169E479E041
:1050A00039C0C5016DE479E035C0772061F5E09144
:1050B000341BF091351BA4E0EE0FFF1FAA95E1F71A
:1050C000E80DF91D82E2E030F80750F4EB59F64F95
:1050D0008081082F10E0918180E0082B192B02C0FD
:1050E00000811181C50161E579E00E945C2EC80153
:1050F000BE016F5F7F4F44E00E942027E2E0F0E0B6
:105100008E0E9F1E09C0C50163E579E003C0C5018D
:1051100067E579E00E945C2E80915E09813041F460
:105120008091DC1A9091DD1A9093311B8093301B93
:10513000C501BE016F5F7F4F0E945C2EC5016BE50C
:1051400079E00E945C2E12C0EC2DF0E070FF05C0EB
:10515000EE0FFF1FE653F84F04C0EE0FFF1FE451A0
:10516000F84F60817181C5010E94702E10925E0916
:10517000C401A8960FB6F894DEBF0FBECDBFCF9185
:10518000DF911F910F91FF90EF90DF90CF90BF9034
:10519000AF909F908F907F9008950F931F93DF9310
:1051A000CF93CDB7DEB72A970FB6F894DEBF0FBE08
:1051B000CDBF8C018091281A80FF0CC0E091271A86
:1051C000E695E695E695E770F0E0EE0FFF1FE653F3
:1051D000F84F0BC0E091271AE695E695E695E77043
:1051E000F0E0EE0FFF1FE451F84F6081718183E71B
:1051F0009AE10E94702E6091271A7091281AC801B6
:1052000043E65AE10E9478278091281A869580FF0C
:1052100013C08E010F5F1F4FC80163E77AE10E9440
:10522000702E83E79AE163E67AE10E94702E83E6AE
:105230009AE1B8010E94702E2A960FB6F894DEBF4C
:105240000FBECDBFCF91DF911F910F91089534E034
:10525000880F991F3A95E1F7860F971F0E94F72E46
:10526000089580916619882319F01092661981E0DB
:10527000089589EF87BD92E094BD83E085BD90934A
:105280006E00789408951F920F920FB60F9211241A
:105290008F93809165198F5F80936519823329F40C
:1052A00081E080936619109265198F910F900FBE5F
:1052B0000F901F901895EAE0F1E08081806880836C
:1052C000EBE0F1E080818F7780838FE8809374003A
:1052D00080E8809375000895782FF9018091421B32
:1052E00084FF03C08FB180933E1B8091421B81FFDE
:1052F00004C08091060180933F1B8091421B80FF78
:1053000004C089B18F708093401B8091421B83FF42
:105310000FC0809103012091000190E08370907094
:10532000880F991F880F991F2370282B2093411BEA
:105330004234510509F45CC04334510540F4403413
:10534000510551F04134510509F0E4C021C0433406
:10535000510509F0DFC07BC09091421B892F8076F8
:1053600009F0D8C0772331F490913F1B80E0209161
:105370003E1BCEC094FD02C0E0933E1B613009F09D
:10538000C9C08091421B81FDC5C010923F1BC2C0A5
:105390008091421B82FDBEC07723A9F48091411BFE
:1053A00090E064E0880F991F6A95E1F72091401B17
:1053B00030E02F703070822B932B582F4427809130
:1053C0003F1B90E027C081FD02C0E0933F1B61308E
:1053D00009F0A0C08091421B80FDF1C08F2F8F701B
:1053E0008093401BECC08F2F8F708093411B92C025
:1053F0002091421B22FD8EC0772379F4922F80E00A
:105400003091411B3295307F2091401B2F70322B01
:10541000432F50E0482B592B7FC020FD04C08E2F16
:105420008F708093401B8091421B83FD0AC0CF0187
:10543000807F907044E0969587954A95E1F7809338
:10544000411B613009F066C0F093421B63C07130AC
:1054500009F059C0E093421B2E2F8E2F807601F564
:10546000E4FF04C010BA8FEF81BB02C08FEF80BB96
:1054700023FF0BC0809104018C7F809304018091F5
:1054800001018C7F8093010112C08091040183602F
:10549000809304018091010183608093010111C018
:1054A00010BA10920401109201018FEF81BB80911C
:1054B00005018360809305018091020183608093E0
:1054C000020122FD17C021FF06C0109207018FEFD5
:1054D0008093080103C08FEF8093070120FF06C06F
:1054E0008AB1807F8AB98BB18F600BC08AB18F601F
:1054F0008AB910C0109207018FEF809308011AB883
:105500008FE08BB907C09091BF1A80E02091421BB9
:10551000422F7FCF40E050E02091421B822F8076C7
:10552000B1F524FD03C080913E1B81BB21FD04C069
:1055300080913F1B8093080120FD08C08BB19091A2
:10554000401B892B8BB98BB189238BB923FD1FC0DD
:10555000209102018091411B382F3370232B20931F
:1055600002012091020132233093020120910501B2
:1055700090E08C7090709595879595958795282BE0
:1055800020930501209105018223809305018091DC
:105590003E1B8093BB1A80913F1B8093BC1A909155
:1055A000411B9295907F8091401B8F70982B909318
:1055B000BD1A8091421B8093BE1ACA010895809142
:1055C000421B83FF10CFA6CF80E490E090933D1B59
:1055D00080933C1B81E060E043E450E02BE930E045
:1055E0000E946C2908951092C50087E68093C4003C
:1055F000E0ECF0E0808182608083E1ECF0E080818B
:1056000088608083E2ECF0E080818660808308958A
:10561000482F8091A7199091A819019660E470E035
:105620000E94D92C9C018091A9199091AA19281740
:105630003907C9F3E091A719F091A819E959F64E75
:1056400040833093A8192093A7198091C1008062EC
:105650008093C10008950E94082B0895CF93DF9393
:10566000EC0103C021960E94082B88818823D1F782
:10567000DF91CF9108958091C00087FFFCCF80918A
:10568000C60008958091C000881F8827881F08954C
:105690001F93CF93DF93EC0110E08091C00087FF50
:1056A000FCCF8091C6008D3039F4C10FD11D188216
:1056B000DF91CF911F910895883031F0FE01E10F05
:1056C000F11D80831F5F0AC0112339F3115088E058
:1056D0000E94082B80E20E94082B88E00E94082B81
:1056E000DCCFDC0160E001C06F5FFD01E60FF11D62
:1056F000808180538A30C0F340E050E021E030E008
:105700001BC06150FD01E60FF11D808190E0C09744
:10571000FC01E29FC001E39F900DF29F900D1124C8
:10572000480F591FC901880F991F73E0220F331FBB
:105730007A95E1F7280F391F662319F7CA010895F2
:10574000CF92DF92FF920F931F93DF93CF93CDB74A
:10575000DEB727970FB6F894DEBF0FBECDBF9C0112
:105760008B01F42E81E08417A8F540E06E010894C7
:10577000C11CD11CC9016F2D70E00E94C52CBC0159
:105780008A30910510F087E301C080E3F601E40F51
:10579000F11D860F80834F5FC9016F2D70E00E945D
:1057A000C52C9B016115710529F7542F90E09E01CE
:1057B0002F5F3F4F4150F801E90FF11DD901A40FB0
:1057C000B11D8C9180839F5F4423A1F7050F111DAC
:1057D000F801108227960FB6F894DEBF0FBECDBF3A
:1057E000CF91DF911F910F91FF90DF90CF9008959F
:1057F0001F93182F982F92959F709A3010F087E37F
:1058000001C080E3890F0E94082B912F9F709A306E
:1058100010F087E301C080E3890F0E94082B1F91DD
:1058200008951F93182F892F0E94F82B812F0E9413
:10583000F82B1F910895EF92FF920F931F93CF9330
:10584000DF937C0100E010E8C0E0D0E0C8018E21C9
:105850009F21892B11F480E301C081E30E94082B72
:10586000169507952196C031D10581F7DF91CF912B
:105870001F910F91FF90EF9008951F93182F6AE0EA
:105880000E94B92C805D0E94082B812F6AE00E9443
:10589000B92C892F805D0E94082B1F9108951F92BB
:1058A0000F920FB60F920BB60F9211242F933F93C6
:1058B0005F936F937F938F939F93AF93BF93EF9378
:1058C000FF932091A7193091A8198091A91990915F
:1058D000AA192817390731F48091C1008F7D809370
:1058E000C10016C0E091A919F091AA19E959F64E24
:1058F00080818093C6008091A9199091AA19019680
:1059000060E470E00E94D92C9093AA198093A919A1
:10591000FF91EF91BF91AF919F918F917F916F9187
:105920005F913F912F910F900BBE0F900FBE0F9084
:105930001F901895629FD001739FF001829FE00D28
:10594000F11D649FE00DF11D929FF00D839FF00DFE
:10595000749FF00D659FF00D9927729FB00DE11DAA
:10596000F91F639FB00DE11DF91FBD01CF01112487
:105970000895991B79E004C0991F961708F0961BAB
:10598000881F7A95C9F780950895AA1BBB1B51E122
:1059900007C0AA1FBB1FA617B70710F0A61BB70B9F
:1059A000881F991F5A95A9F780959095BC01CD0144
:1059B000089597FB092E07260AD077FD04D0E5DF6E
:1059C00006D000201AF4709561957F4F0895F6F780
:1059D000909581959F4F0895A1E21A2EAA1BBB1B9B
:1059E000FD010DC0AA1FBB1FEE1FFF1FA217B307AB
:1059F000E407F50720F0A21BB30BE40BF50B661FC1
:105A0000771F881F991F1A9469F760957095809584
:105A100090959B01AC01BD01CF01089597FB092E24
:105A200005260ED057FD04D0D7DF0AD0001C38F46D
:105A300050954095309521953F4F4F4F5F4F0895BA
:105A4000F6F790958095709561957F4F8F4F9F4F9A
:105A500008953F924F925F926F927F928F929F92A2
:105A6000AF92BF92CF92DF92EF92FF920F931F936C
:105A7000CF93DF93EC012B016A016115710519F0D9
:105A8000FB0191838083C114D10449F0C6010297C0
:105A9000839728F020E030E040E050E0DCC0A9909F
:105AA0008A2D90E00E94472E892BC9F7FDE2AF16A0
:105AB00021F4A9903324339405C08BE2A81609F48D
:105AC000A9903324C114D10421F0E0E1CE16D10411
:105AD00011F5F0E3AF1669F48881883711F0883545
